:020000040000FA
:0600000047EF02F01200C0
:020006001200E6
:0600080094EF01F012006C
:02000E000000F0
:020010000000EE
:0400120000000000EA
:0600180068EF01F0120088
:02001E000200DE
:10002000120000006E000000040000000E0000003E
:080030006A000000040000005A
:08003800D9CFE6FFE1CFD9FFAB
:10004000030EE126DF6A010EDB6A956A030E936EEA
:10005000C16885EC01F0AAEC01F0310EC86E800E8B
:10006000E66E080EE66E1CEC02F0E552E5528C9C42
:100070006AC004F06BC005F06CC006F06DC007F0FC
:10008000E80E096E030E0A6E0B6A0C6ABCEC01F0F6
:10009000F40E005C010E0158000E0258000E0358C9
:1000A00002E2000E01D0010EE8B08C8EE8A08C9E1A
:1000B0002C0E00016E5D010E6F59000E7059000E7E
:1000C00071590DE3010EDB2ADBCFE7FF1F0EE716A8
:1000D000010EE7CFDBFF6E6B6F6B706B716B010E08
:1000E000DB501F0BE66E200EE66E1ED8E552E55281
:1000F000200EE66E40D8E552E00BE838E840200DCF
:10010000020EF3CFDBFFDB508A12020EDB501F0F13
:100110008A16AED7030EE15C02E2E16AE552E16EB7
:10012000E552E7CFD9FF1200D9CFE6FFE1CFD9FFE3
:1001300062EC02F0C580C5B0FED762EC02F0FE0EA4
:10014000DB50E824E66E2FEC01F0E55200090AE1ED
:10015000FD0EDBCFE6FF2FEC01F0E552000902E1D6
:1001600062EC02F0C584C5B4FED762EC02F0E55241
:10017000E7CFD9FF1200D9CFE6FFE1CFD9FFE65292
:1001800062EC02F0C580C5B0FED762EC02F0FE0E54
:10019000DB50E824010FE66E2FEC01F0E552000978
:1001A00003E155EC02F0DF6EC584C5B4FED762EC06
:1001B00002F0DF5000D0E552E552E7CFD9FF120040
:1001C0001E0EF66E000EF76E000EF86E00010900AE
:1001D000F550656F0900F550666F03E1656701D062
:1001E0003DD00900F550606F0900F550616F0900BE
:1001F000F550626F09000900F550E96E0900F550ED
:10020000EA6E090009000900F550636F0900F55016
:10021000646F09000900F6CF67F0F7CF68F0F8CFF8
:1002200069F060C0F6FF61C0F7FF62C0F8FF00012F
:10023000635302E1645307E00900F550EE6E630773
:10024000F8E26407F9D767C0F6FF68C0F7FF69C036
:0E025000F8FF00016507000E665BBFD71200C5
:02025E00D9CFF6
:10026000E6FFDACFE6FFE1CFD9FFE2CFDAFFFD0EFE
:10027000DB50C96EC6AE02D0FF0E24D00F0EC614DE
:1002800008080FE00F0EC6140B080BE0C6889EA6E8
:10029000FED7C750040B03E1C750010B10E0000E5E
:1002A00011D00F0EC614080804E00F0EC6140B0878
:1002B00009E1C7B0FED762EC02F0C5AC02D0FE0E79
:1002C00001D0000EE552E5CFDAFFE7CFD9FF1200EB
:1002D000D8CFE4FFE0CFE4FFE46EDACFE4FFE2CF73
:1002E000DAFFE6529EA208D09E92040E00016A2711
:1002F000000E6B236C236D23E552E5CFDAFFE5504A
:10030000E5CFE0FFE5CFD8FF1000D08EF28EF28C63
:10031000F28E9D829F92F90ECB6E9E92DE0EE66E5D
:0803200001EC02F0E5521200AD
:08032800DACFE4FFE2CFDAFFB7
:10033000E6529EA00BD09E90D10ECF6E200ECE6EB8
:1003400000016E2B000E6F2370237123E552E5CF61
:10035000DAFF1100D08EF28EF28E9D809E909F80EB
:1003600006D8C50EE66EE0EC01F0E5521200D10EA3
:08037000CF6E200ECE6E1200CC
:08037800036A026A016A006ACF
:10038000200EE76ED890043605360636073600365E
:100390000136023603360950005C0A5001580B50F2
:1003A00002580C50035809E30950005E0A50015AE4
:1003B0000B50025A0C50035A042AE72EE4D71200BD
:1003C000D9CFE6FFDACFE6FFE1CFD9FFE2CFDAFF00
:1003D000FD0EDB507E0BCD6EFD0EDBAC02D0CD8E64
:1003E00001D0CD9ECF6ACE6A9E90DBAE02D09D80BA
:1003F00001D09D90CD80E552E5CFDAFFE7CFD9FF60
:020400001200E8
:0E040200D9CFE6FFDACFE6FFE1CFD9FFE2CF98
:10041000DAFFFD0EDB50FB0BCA6ECC6A9E92FD0E1E
:10042000DBAE02D09D8201D09D92CA84E552E5CF19
:08043000DAFFE7CFD9FF12004B
:08043800D9CFE6FFDACFE6FFA1
:10044000E1CFD9FFE2CFDAFF3F0EC716C66AC56A11
:10045000FD0EDB50C612FC0EDB50C7129382938058
:0E046000C68AE552E5CFDAFFE7CFD9FF1200DA
:02046E00000E7E
:10047000F36E00EE00F0080E01D81200EA6002D020
:0E048000EE6AFCD7F350E9601200EE6AFCD77A
:02048E0013EE6B
:1004900000F023EE00F0F86A0F9CE0EC00F003ECB3
:0A04A00000F01CEC00F0FBD7120086
:0604AA000F0EC614080845
:1004B00004E00F0EC6140B0801E1C586C7A0FED7E5
:0404C000C95012000D
:0C04C4001F0EC514FDE1C750040BFAE147
:0204D000120018
:00000001FF
