:020000040000FA
:0600000078EF01F0120090
:0A00060001000C0300006A00000076
:0400100004000000E8
:020014001200D8
:06001800FDEF00F01200F4
:02001E00D9CF38
:10002000E6FFE1CFD9FF0A0EE126DE6ADE6ADE6A6C
:10003000DD6ADD52DD52040EDB6A050EDB6A060E58
:10004000DB6A070EDB6A080EDB6A090EDB6A956A5B
:10005000E00E936E0F0EC16EF18E1AEC01F08C9AC9
:100060006AC004F06BC005F06CC006F06DC007F00C
:10007000E80E096E030E0A6E0B6A0C6A29EC01F099
:10008000F40E005C010E0158000E0258000E0358D9
:1000900002E2000E01D0010EE8B08C8EE8A08C9E2A
:1000A0008150800B02E08C8C01D08C9C8150400BE5
:1000B00001E0010E106E040EDB50105C15E0815063
:1000C000400B01E0010EE76E040EE7CFDBFF050EEB
:1000D000DB6A6AC0DFFF010E6BC0DBFF020E6CC083
:1000E000DBFF030E6DC0DBFFD9CFE9FFDACFEAFFFC
:1000F000EE5000016A5D106EEE506B59116EEE50BD
:100100006C59126EEE506D59136E320E105C000E6B
:100110001158000E1258000E135815E38150400B71
:1001200001E0010E146E040EDB50145C0CE1050EB0
:10013000DB5009E18150400B06E0010EF36E050E25
:10014000F3CFDBFF8C7A8CD70A0EE15C02E2E16A26
:0C015000E552E16EE552E7CFD9FF120046
:04015C00060EF66E27
:10016000000EF76E000EF86E00010900F550656F85
:100170000900F550666F03E1656701D03DD00900C5
:10018000F550606F0900F550616F0900F550626F1E
:1001900009000900F550E96E0900F550EA6E090002
:1001A00009000900F550636F0900F550646F0900FC
:1001B0000900F6CF67F0F7CF68F0F8CF69F060C0BC
:1001C000F6FF61C0F7FF62C0F8FF0001635302E170
:1001D000645307E00900F550EE6E6307F8E2640728
:1001E000F9D767C0F6FF68C0F7FF69C0F8FF0001E4
:0A01F0006507000E665BBFD7120022
:0601FA00D8CFE4FFE0CFC6
:10020000E4FFE46EDACFE4FFE2CFDAFFE6529EA22B
:1002100008D09E92040E00016A27000E6B236C2307
:100220006D23E552E5CFDAFFE550E5CFE0FFE5CFFE
:10023000D8FF1000D08EF28EF28CF28E9D829F92AB
:10024000F90ECB6E9E92DE0EE66E4DEC01F0E5529D
:0202500012009A
:0E025200036A026A016A006A200EE76ED89005
:1002600004360536063607360036013602360336C2
:100270000950005C0A5001580B5002580C500358AA
:1002800009E30950005E0A50015A0B50025A0C5003
:0A029000035A042AE72EE4D71200F7
:06029A00D9CFE6FFDACF28
:1002A000E6FFE1CFD9FFE2CFDAFFFD0EDB50FB0B1B
:1002B000CA6ECC6A9E92FD0EDBAE02D09D8201D04A
:1002C0009D92CA84E552E5CFDAFFE7CFD9FF12004D
:1002D000000EF36E00EE00F0080E01D81200EA6086
:1002E00002D0EE6AFCD7F350E9601200EE6AFCD748
:1002F00013EE00F023EE00F0F86A0F9CAEEC00F075
:0C0300000AEC00F00FEC00F0FBD712003C
:04030C0000000000ED
:020000040030CA
:010003001EDE
:010005008179
:00000001FF
