:020000040000FA
:060000006AEF0BF0120094
:020006001200E6
:0600080033EF06F01200C8
:02000E001200DE
:0700100000000000000000E9
:06001800ACEF0AF012003B
:02001E000300DD
:1000200038170000710000000600000034170000BF
:100030007700000004000000100000006A000000CB
:0400400007000000B5
:0C0044005EEC05F0FB0EDBCFF3FFDB06EB
:10005000F35000090AE0ACEC05F0FA0E17EC06F0DC
:10006000F3E1151CF1E1010E01D0000E8DEF05F05A
:100070005EEC05F03B0EE12402E3E168E652E16E3E
:10008000010EDB6A020EDB6AF90EDBCFF6FFFA0E19
:10009000DBCFF7FFFB0EDBCFF8FF0800F550DF6E7C
:1000A000DF5002E1B1EF04F0250EDF5C02E0A4EFC7
:1000B00004F0030EDB6A040EDB6A050EDB6A060E33
:1000C000DB6A070EDB6AC6EC04F02D0EDF5C0CE089
:1000D0002B0EDF5C09E0200EDF5C06E0230EDF5C08
:1000E00003E0300EDF5C1AE1DF50300A14E0130A3F
:1000F0000FE0030A0AE00B0A05E0060AE4E1030E3A
:10010000DB80E1D7030EDB82DED7030EDB84DBD797
:10011000030EDB86D8D7030EDB88D5D72A0EDF5C2B
:100120001BE1C2EC04F010EC05F010E0030EDB80E4
:1001300006680768130EDBCF0BF0140EDBCF0CF054
:100140007FEC0AF0040E04C0DBFF03D0130EF9ECC1
:1001500004F0C6EC04F00BD0090EDB6A67EC05F086
:1001600003E0DBEC05F0FAD7090EF9EC04F0030E1E
:10017000DBB0DB982E0EDF5C1BE1C6EC04F02A0E30
:10018000DF5C0BE1C2EC04F010EC05F003E1130EB0
:100190004BEC05F0C6EC04F00BD0090EDB6A67EC03
:1001A00005F003E0DBEC05F0FAD7090E4BEC05F0A7
:1001B000680EDF5C07E1C6EC04F0680EDF5C1DE151
:1001C000030E18D0740EDF5C17E07A0EDF5C14E0CB
:1001D000480EDF5C06E0540EDF5C03E05A0EDF5C85
:1001E00002E1020E07D06C0EDF5C03E06A0EDF5CFA
:1001F00004E1010E9EEC05F0C9DBDF506E0A01E15F
:100200007FD31E0A01E192D1200A01E18FD13F0A7A
:1002100001E149D11A0A01E146D10D0A01E143D1B8
:10022000200A01E140D13A0A01E13DD1200A01E171
:100230003AD1260A01E135D10D0A01E132D11A0A7B
:1002400001E1D9D0200A4AE0300A1FE0460A0EE058
:10025000250A01E083D3D950F90FE96EFF0EDA20A9
:10026000EA6E010EEE5E000EEE5AEE5AACEC05F0B0
:10027000250EE66E95DB03E1151C01E169D3A8ECC0
:1002800005F001E26BD3DB2A69D3080EDB6A040EAA
:10029000DB50010806E2040EDB0470EC05F0DB50D5
:1002A0008BDB080EDB5009E0030EDB50010B05E190
:1002B00072DB01E04DD3080EDB6A64DBEFCFDFFFBA
:1002C00020EC06F003E1151C01E142D3A8EC05F097
:1002D00001E3DB2A60DB01E141D33AD3070EDB50B7
:1002E00002080FE1ECEC05F0030EB3EC05F00E0E86
:1002F000EECFDBFF0F0EEECFDBFF100EEECFDBFFFE
:1003000020D0F70EDBCF17F0F80EDBCF18F0020E7F
:10031000175E000E185AF70E17C0DBFFF80E18C054
:10032000DBFF17C0E9FF18C0EAFFA3EC05F0166A6F
:100330000E0E14C0DBFF0F0E15C0DBFF100E16C033
:10034000DBFF0E0EDBCFE6FF0F0EDBCFE6FF100E5E
:10035000DBCFE6FF5AEC0AF0E552E552E552130E08
:1003600005C0DBFF140E06C0DBFF060EDB5005E008
:10037000130EE7EC05F001E26ADB0BEC06F002E29B
:10038000130E37DBCEEC05F006E0040EE7EC05F0CB
:1003900002E2050E2EDB030EDBB005D0FCDA01E035
:1003A000D7D2080EDB6A090EDB6A0E0EDBCFF6FF32
:1003B0000F0EDBCFF7FF100EDBCFF8FF0800F55074
:1003C000DF6EDF5014E011EC06F011E220EC06F0D5
:1003D00003E1151C01E1BCD2BBDB01E3DB2A090E02
:1003E000DB2AD9500E0FE96E000ECBDBE7D7D3DA4C
:1003F00001E1B4D2ADD2C6DA110EEECFDBFF120EA0
:10040000EDCFDBFF110EDBCFE6FF120EDBCFE6FFF9
:100410004CEC0AF0E552E552130EF3CFDBFF140E5D
:10042000F4CFDBFF060EDB5004E0130ED0DB01E25D
:100430000EDB0BEC06F002E2130EDBDAAFDB05E0BD
:10044000040EC5DB02E2050ED4DA030EDBB005D0E4
:10045000A2DA01E07DD2080EDB6A090EDB6A110E1A
:10046000DBCFE9FF120EDBCFEAFFEFCFDFFFDF507C
:1004700014E0D7DB12E2E4DB03E1151C01E168D2F2
:1004800067DB01E3DB2A090EDB2A110EDB2ADBCF57
:10049000E9FF120EE8E3DB2AE6D77DDA01E15ED25E
:1004A00057D2030EDB8E070EDB0410E195DB040E42
:1004B0005ADB0A0EEECFDBFF0B0EEECFDBFF0C0E8E
:1004C000EECFDBFF0D0EEECFDBFF6CD0070EDB5067
:1004D00003082CE1030EDBAE0DD0B2DA020E76DAA1
:1004E000EFCF14F0156A166A176A14AE39D0156882
:1004F000166835D0F70EDBCF15F0F80EDBCF16F00F
:10050000020E155E000E165AF70E15C0DBFFF80E30
:1005100016C0DBFF15C0E9FF16C0EAFFEFCF14F0ED
:100520000A0E14C0DBFF0B0EDB6A38D0070EDB505F
:10053000020809E1030EDBAE04D059DB16AE10D081
:100540000ED055DB0DD0030EDBAE12D079DA020EE1
:100550003DDAF9DA166A176A15AE02D0166817681E
:10056000E2DA0C0E16C0DBFF0D0E17C0DBFF1AD04F
:10057000F70EDBCF16F0F80EDBCF17F0020E165E8B
:10058000000E175AF70E16C0DBFFF80E17C0DBFF80
:1005900016C0E9FF17C0EAFFD6DAC5DA0C0EDB6A2F
:1005A0000D0EDB6A060EDB5005E1010EF36E050E43
:1005B000F3CFDBFF150EDB6A160EDB6AD950370F5F
:1005C000146E000EDA20156E390E14C0DBFF3A0EE1
:1005D00015C0DBFF380EDB6A080EDB6A0A0EAEDAE6
:1005E000DF50780A12E0200A10E0280A0CE0200A06
:1005F0000AE03F0A06E00D0A02E0200A08E1020EC6
:1006000005D0080E03D0080EDF26100E97DA030E71
:10061000DBBE02D0DB92DB94DB50800B24E08ADA75
:10062000D890030EEB50000A08E6000EEE5C000EB8
:10063000EE58000EEE58000EEE5815E213DA096877
:100640000A680B680C6814EC0AF00A0E00C0DBFFA5
:100650000B0E01C0DBFF0C0E02C0DBFF0D0E03C052
:10066000DBFF2D0E08D0030EDBA202D02B0E03D031
:10067000DBA408D0200EF36E170EF3CFDBFF150EB0
:10068000DB2A02D0170EDB6A050EDB5003E1B7D977
:1006900001E189D0230E146E170E156E000E166E32
:1006A000070EDBCF17F0186A196A1A6A17C009F02B
:1006B00018C00AF019C00BF01AC00CF0D3D9D8EC4E
:1006C0000AF014500024F36E15500120F46E1650F9
:1006D0000220F86EF4CFF7FFF3CFF6FF0800090E03
:1006E000F5CFDBFF580EDF5C0FE1610EF36E090EF4
:1006F0007BD90AE3200E146E090EDBCFE7FF1450FE
:10070000E75E090EE7CFDBFF070EDBCF14F0156ABB
:10071000166A176A0FDA14C009F015C00AF016C07D
:100720000BF017C00CF0EECF04F0EECF05F0EECFDB
:1007300006F0EFCF07F0D8EC0AF007C0EDFF06C0D7
:10074000EDFF05C0EDFF04C0EFFF390EDBCFE9FF81
:10075000DB063A0EDBCFEAFF01E2DB06090EDBCF58
:10076000EFFF150EDB2A4BD995E1030EDBA61DD05A
:100770006F0EDF5C06E1C1D918E3150EDB285BDAEA
:1007800014D0780EDF5C09E0580EDF5C06E0620EE4
:10079000DF5C03E0420EDF5C08E1020EF36E160E32
:1007A000F3CFDBFF02D0150EDB6A030EDB50100B1C
:1007B0000EE0040EDBCF14F0050EDB50D88014548D
:1007C00006E2060EDB5003E1040EDB5034DA95D965
:1007D0000AE2050EDBCFE7FF150EDB50E75E050EE4
:1007E000E7CFDBFF02D0050EDB6A040EDBCF14F08F
:1007F000160E45D9D880145414E2160EDBCFE6FF4E
:10080000150EDBCFE6FF040EDBCFE6FF050EDB5057
:10081000E552E75CE552D880E754E552D880E754CA
:100820005FD9030EDB50010B0BE1080EDB5008E033
:10083000B2D801E08DD0080EDB50BED8080EDB6ABE
:10084000170EDB5007E088D9170EF1D903E1151C0C
:1008500001E17ED0160EDB5016E07ED9300EE66E3A
:100860009FD802E1151C74E077D9DFCFE6FFD2EC08
:1008700009F0E552E552E552F4CF15F00001F31C02
:1008800002E1151C65E0050EDBCF14F0160EDB50FF
:10089000D880145409E2050EDBCFE7FF160EDB50BB
:1008A000E75E050EE7CFDBFF300EE66E050ECBD917
:1008B0004FE1390EDB2ADBCFE9FF3A0E01E3DB2AF9
:1008C000DBCFEAFF090EEFCFDBFFDB500EE044D9B0
:1008D000090EADD902E1151C3BE0390EDB2ADBCF56
:1008E000E9FF3A0EEDE3DB2AEBD755D831E1160EDE
:1008F000DBCFE6FF080EC3D8E552E7245DD82ED043
:10090000070EDB50030A1CE0010A14E0030A07E0AB
:100910007BD9DBCFEEFF020EDBCFEDFF1FD0F5D88A
:10092000196A17AE02D0186819682CD8BCD819C03B
:10093000EEFF14D0EAD817BE186824D8B4D80ED069
:1009400063D9DBCFEFFF0AD07BD905E1151C03E1AA
:10095000F368F46810D0FCD801E3DB2A79D94DEFB5
:1009600000F0010EDBCF14F0020EDBCF15F014C047
:10097000F3FF15C0F4FF3B0EE15C02E2E16AE552D1
:10098000E16ECBD029D9020EB3EF05F061D9080092
:10099000F550DF6E1200200EE66E080E23EF06F013
:1009A000D2EC09F0E552E552E552F3CF14F0F4CF62
:1009B00015F00001F31C1200146E156AD950010FD6
:1009C0004DD91450EE261550ED221200185E000E7F
:1009D000195AF70E18C0DBFFF80E19C0DBFF18C05C
:1009E000E9FF19C0EAFF1200DBCFF4FFF350F45C1B
:1009F0001200DB50E76E040EE7CFDBFF12000A0E99
:100A0000DBCF14F00B0EDBCF15F00C0EDBCF16F0A6
:100A10000D0EDBCF17F01450151016101710120022
:100A2000130EEECFDBFF140EEDCFDBFF130EDBCF8B
:100A300014F0140EDBCF15F00001800E1514120017
:100A4000F70EDBCF18F0F80EDBCF19F01200050E11
:100A5000DB50E66ED950130F01D9E552E750EE6E28
:100A6000ED6A12000A0EDBCF04F00B0EDBCF05F0AF
:100A70000C0EDBCF06F00D0EDBCF07F01200DBCF44
:100A8000E6FF150EDBCFE6FF050EDB50E552E7244F
:100A9000E552E7241200DB50CED8010EF36E060EAD
:100AA000F3CFDBFF1200EE50EFCFEAFFE96E16C086
:100AB000EEFF17C0EEFF18C0EEFF1200D9CFE6FF21
:100AC000DACFE6FFE1CFD9FFE2CFDAFF1200DFCFC6
:100AD000E6FFE66A38EC0BF0E552E552F3501200FF
:100AE000E76E080EE7CFDBFF1200EECF14F0EECF7B
:100AF00015F0EFCF16F0176A1200050EDBCF14F0D9
:100B0000150EDB50D88014541200010EDBCF16F006
:100B1000020EDBCF17F0186A1200E552E5CFDAFFBC
:100B2000E7CFD9FF12000A0E14C0DBFF0B0E15C071
:100B3000DBFF1200D9500A0F2EEF06F0F36E070EFE
:100B4000F3CFDBFF1200EECF14F0EFCF15F0120061
:100B5000010EDB2A020E1200FC0EDBCFE6FFFD0EBB
:100B6000DBCFE6FF1200145E000E155AF70E14C01C
:100B7000DBFFF80E15C0DBFF14C0E9FF15C0EAFF6C
:100B80001200DA20EA6EEF2AEECFF6FF000EEF2217
:100B9000EECFF7FFEF22EECFF8FF1200040EDBCF0F
:100BA000E6FF130EDB50E552E75C9ADFDB5004DF13
:100BB000060EDB501200090EDB500A0DF350DF2445
:100BC000D00FE76E090EE7CFDBFFC6EF04F0DB5076
:100BD000F36E050EF4EF04F0F70EDBCF14F0F80E11
:100BE000DBCF15F01200DFCFE6FFD0EF04F028DFF7
:100BF000030EECDE75EF05F022EC00F0E552E55255
:100C0000E552E55200091200BDDEEE50EFCFEAFFDB
:100C1000E96E010E1200130EDB50F36E040EF4EFBA
:100C200004F0040EDB50F36E090EF4EF04F0DBCF9A
:100C3000E6FFD0EF04F0E76E050EE7CFDBFF120012
:100C40008BDFF3EF05F0DBCFE6FF86DFFCEF05F08F
:100C5000D950F90FE96EFF0EC1EF05F0E96E000EF5
:060C6000DA20EA6E12002A
:0A0C6600DACFE4FFE2CFDAFFE65236
:100C70009EA00BD09E90D10ECF6E200ECE6E0001A6
:100C80006D2B000E6E236F237023E552E5CFDAFF44
:100C90001100D08EF28EF28E9D809E909F80D10E9C
:100CA000CF6E200ECE6EC50EE66EFCEC0AF0E5525D
:100CB0001200D9CFE6FFE1CFD9FF170EE126DF6A98
:100CC000010EDB6A020EDB6A030EDB6A040EDB6ACE
:100CD000700E956E936AC9EC0AF0DBDFE7EC07F063
:100CE00077C004F078C005F079C006F07AC007F04C
:100CF000E80E096E030E0A6E0B6A0C6AD8EC0AF055
:100D0000F40E005C010E0158000E0258000E03584C
:100D100002E2000E01D0010EE8B08C8EE8A08C9E9D
:100D2000D950160FE96EDACFEAFF8350400B02E08C
:100D3000EF8001D0EF90D950160FE96EDACFEAFFBD
:100D40008350200B02E0EF8201D0EF92D950160FB2
:100D5000E96EDACFEAFF8350100B02E0EF8401D096
:100D6000EF948350400B03E08350200B0EE183503F
:100D7000400B03E08350100B08E18350100B03E09D
:100D80008350200B02E1000E01D0010E146ED950E9
:100D9000160FE96EDACFEAFF1450010BF36EF3463B
:100DA000F346F346F70EEF14F310EF6E770EE66E90
:100DB000000EE66ED950160FE66E000EDA20E66ED3
:100DC0002DEC09F0E552E552E552E552D950160FE7
:100DD000E96EDACFEAFFEF50080B07E0DF5002E0E0
:100DE000000E01D0010EDF6E20D0D950160FE96E33
:100DF000DACFEAFFEF50010B03E000016A2B15D0B8
:100E0000D950160FE96EDACFEAFFEF50020B03E07C
:100E100000016B2B0AD0D950160FE96EDACFEAFF2A
:100E2000EF50040B02E000016C2BE80E00016D5D39
:100E3000030E6E59000E6F59000E705905E36D6B6D
:100E40006E6B6F6B706B6C2B3C0E6C5D02E36C6BAE
:100E50006B2B3C0E6B5D02E36B6B6A2B180E6A5DAD
:100E600001E36A6BD950010FE96EDACFEAFFEE5069
:100E70000001775D146EEE507859156EEE50795979
:100E8000166EEE507A59176EF40E145C010E15585A
:100E9000000E1658000E175801E28ED0010E77C0D2
:100EA000DBFF020E78C0DBFF030E79C0DBFF040E10
:100EB0007AC0DBFF01EC08F000016C51E66EE66AD7
:100EC0006B51E66EE66A6A51E66EE66A140E146EBF
:100ED000170E156E166A14C0E6FF15C0E6FF16C0A1
:100EE000E6FFD950050FE66E000EDA20E66ED7EC6D
:100EF00008F0176E0B0EE15E1750010EE66E040E41
:100F0000E66ED950050FE66E000EDA20E66E7BEC39
:100F100008F0E552E552E552E552DF5041E0D95084
:100F2000010FE96EDACFEAFFEE500001775D146E33
:100F3000EE507859156EEE507959166EEE507A597A
:100F4000176E14C0E6FF15C0E6FF16C0E6FF17C017
:100F5000E6FF0C0E186E170E196E1A6A18C0E6FF1F
:100F600019C0E6FF1AC0E6FFD950050FE66E000E65
:100F7000DA20E66ED7EC08F01B6E090EE15E1B501E
:100F8000020EE66E040EE66ED950050FE66E000EF8
:100F9000DA20E66E7BEC08F0E552E552E552E552C8
:100FA000010E77C0DBFF020E78C0DBFF030E79C0B5
:100FB000DBFF040E7AC0DBFF93D6170EE15C02E282
:0E0FC000E16AE552E16EE552E7CFD9FF12007B
:020FCE000F0E04
:100FD000E66EE66AC1D8E552E552936A959095921D
:100FE000380EE66E13D8E552010EE66E0FD8E552C4
:100FF0000C0EE66E0BD8E552060EE66E07D8E552EB
:101000001200010EE66E02D8E5521200D9CFE6FFBB
:10101000E1CFD9FFFE0EDB508A6E8C908C828C92D1
:10102000030EE66EE66A98D8E552E552E552E7CF40
:10103000D9FF1200D9CFE6FFE1CFD9FFFE0EDB507A
:101040008A6E8C808C828C92010EE66EE66A84D861
:10105000E552E552E552E7CFD9FF1200D9CFE6FFBE
:10106000E1CFD9FFE652DF6AFC0EDB5001080AE34C
:10107000FD0EDB500F0B8009DF6EDFCFE6FFC6DF12
:10108000E55209D0FD0EDB500F0BC009DF6EDFCF3C
:10109000E6FFBCDFE552050EE66EE66A5DD8E55276
:1010A000E552FE0EDBCFE6FFC5DFE552E552E55225
:1010B000E7CFD9FF1200D9CFE6FFE1CFD9FFFD0E70
:1010C000DBCFE9FFFE0EDBCFEAFFEF5010E0FD0EB5
:1010D000DBCFE9FFFE0EDBCFEAFFEF50E66EAADFC3
:1010E000E552FD0EDB2AFE0E01E3DB2AE8D7E552CE
:1010F000E7CFD9FF1200D9CFE6FFE1CFD9FFE65203
:10110000DF6AFB0EDB5001080AE3FC0EDB500F0B1D
:101110008009DF6EDFCFE6FF79DFE55209D0FC0EF4
:10112000DB500F0BC009DF6EDFCFE6FF6FDFE5524C
:10113000050EE66EE66A10D8E552E552FD0EDBCFED
:10114000E6FFFE0EDBCFE6FFB6DFE552E552E552E5
:10115000E552E7CFD9FF1200D9CFE6FFE1CFD9FFA3
:10116000020EE126DE6ADD6ADECF14F0DDCF15F077
:10117000FD0EDBCF16F0FE0EDBCF17F01650145C21
:10118000175015580AE20C0EE66E4AEC0BF0E552C9
:10119000DF2A010E01E3DB2AE7D7020EE15C02E25F
:0E11A000E16AE552E16EE552E7CFD9FF120099
:0211AE00D9CF97
:1011B000E6FFDACFE6FFE1CFD9FFE2CFDAFFE65272
:1011C000E652E652E652D950F90F146EFF0EDA20BD
:1011D000156E020E14C0DBFF030E15C0DBFF020EFE
:1011E000DBCFE6FF030EDBCFE6FFF90EDBCFE6FF3A
:1011F000FA0EDBCFE6FFFB0EDBCFE6FFD950FC0F8C
:10120000E66EFF0EDA20E66E38EC00F0146E070E84
:10121000E15C02E2E16AE552E16E1450F3CFDEFFD9
:10122000F4CFDDFFFC0EDBCFE9FFFD0EDBCFEAFFE5
:10123000EF6ADECF14F0DDCF15F014C0F3FF15C058
:10124000F4FF040EE15C02E2E16AE552E16EE55270
:0A125000E5CFDAFFE7CFD9FF120067
:06125A00D9CFE6FFE1CF51
:10126000D9FFFD0EDBCFE9FFFE0EDBCFEAFFEF502B
:101270000001755D17E0FD0EDBCFE9FFFE0EDBCF51
:10128000EAFFEFCF75F0766BFB0EDBCFE9FFFC0ECC
:10129000DBCFEAFFEECF71F0EECF72F0EECF73F05E
:1012A000EFCF74F0FB0EDBCFE9FFFC0EDBCFEAFFE4
:1012B0007151EE5C146E7251EE58156E7351EE580A
:1012C000166E7451EE58176E320E145C000E1558DF
:1012D000000E1658000E175802E3765108E0FD0E76
:1012E000DBCFE9FFFE0EDBCFEAFFEF6A08D0FD0E91
:1012F000DBCFE9FFFE0EDBCFEAFFEFCF76F0E55262
:06130000E7CFD9FF120047
:0A1306001E0EF66E000EF76E000ECC
:10131000F86E00010900F550656F0900F550666F21
:1013200003E1656701D03DD00900F550606F090009
:10133000F550616F0900F550626F09000900F55022
:10134000E96E0900F550EA6E090009000900F55040
:10135000636F0900F550646F09000900F6CF67F06C
:10136000F7CF68F0F8CF69F060C0F6FF61C0F7FF13
:1013700062C0F8FF0001635302E1645307E0090013
:10138000F550EE6E6307F8E26407F9D767C0F6FF21
:1013900068C0F7FF69C0F8FF00016507000E665BD3
:0413A000BFD71200A1
:0C13A400D9CFE6FFDACFE6FFE1CFD9FF9A
:1013B000E2CFDAFFFB0EDBCF14F0FC0EDBCF15F033
:1013C0000001800E15141AE1FB0EDBCFE9FFFC0EC5
:1013D000DBCFEAFFEECFF3FFEDCFF4FFEE2A000EF6
:1013E000EF22F3CFE9FFF4CFEAFFFD0EDBCFEFFFF3
:1013F000EF50156AF36E15C0F4FF10D0FB0EDB50F2
:10140000FE0806E1FD0EDBCFE6FF78EC0BF005D021
:10141000FD0EDBCFE6FF03EC00F0E552E552E5CF31
:08142000DAFFE7CFD9FF12004B
:0814280004500902F3CF00F0AB
:10143000F4CF01F00A02F3500126000EF420026EF0
:1014400004500B02F3500226000EF420036E0450E9
:101450000C02F350032605500902F3500126F45004
:101460000222000E032205500A02F3500226F45015
:10147000032205500B02F350032606500902F350D5
:101480000226F450032206500A02F35003260750A6
:081490000902F35003261200CB
:08149800FE0EE3CFE9FFFF0E99
:1014A000E3CFEAFFF36AF46AEE5203E0F34AF42A68
:1014B000FBD71200FF0EE3CFF8FFE552FF0EE3CF9C
:1014C000F7FFE552FF0EE3CFF6FFE552E66AE66A64
:1014D000E66A0900F55209E0FD0EE32A05E1FE0E79
:1014E000E32A02E1FF0EE32AF4D7FD0EE3CF05F075
:0E14F000FE0EE3CF06F0FF0EE3CF07F0120072
:0214FE0007C025
:1015000013F006C012F006500B02F4CF05F0F3CF33
:1015100004F007500C02F4CF07F0F3CF06F00B02F3
:10152000F3500526F4500622E86A072212500C02F6
:10153000F3500526F4500622E86A07220CAEA5EF08
:101540000AF01250065E1350075A13AE000C0B50EF
:08155000065E0C50075A000C66
:08155800D8CFE4FFE0CFE4FF6F
:10156000E46EDACFE4FFE2CFDAFFE6529EA208D0C3
:101570009E92040E00017727000E782379237A23A8
:10158000E552E5CFDAFFE550E5CFE0FFE5CFD8FF44
:101590001000D08EF28EF28CF28E9D829F92F90E08
:1015A000CB6E9E92DE0EE66E1DEC0BF0E552120045
:1015B000036A026A016A006A200EE76ED890043658
:1015C0000536063607360036013602360336095030
:1015D000005C0A5001580B5002580C50035809E3A4
:1015E0000950005E0A50015A0B50025A0C50035A1F
:0815F000042AE72EE4D71200E3
:0815F800D9CFE6FFDACFE6FFD0
:10160000E1CFD9FFE2CFDAFFFD0EDB507E0BCD6ECE
:10161000FD0EDBAC02D0CD8E01D0CD9ECF6ACE6A5E
:101620009E90DBAE02D09D8001D09D90CD80E55292
:0A163000E5CFDAFFE7CFD9FF120083
:06163A00D9CFE6FFDACF74
:10164000E6FFE1CFD9FFE2CFDAFFFD0EDB50FB0B67
:10165000CA6ECC6A9E92FD0EDBAE02D09D8201D096
:101660009D92CA84E552E5CFDAFFE7CFD9FF120099
:10167000F36AF46AFF0EE124E96EFF0EE220EA6EDF
:10168000ED6607D02F0EEF6404D03A0EEF6001D064
:04169000F32A120027
:0C169400FF0EE3501C6E480E01D04C0EFF
:1016A000E76EE72EFED7E76AE72EFED71C2EF7D7A8
:0416B0000000120024
:0C16B400000EF36E00EE00F0080E01D8EE
:1016C0001200EA6002D0EE6AFCD7F350E960120023
:0416D000EE6AFCD7EB
:0C16D40013EE00F023EE00F0F86A0F9C0B
:1016E00083EC09F007EC00F059EC06F0FBD7120090
:1016F000FF0EE350ACBA04D0AF6AAB8EAC8A949CB8
:0C170000ACA2FED7AD6EF36EF46A1200CE
:04170C0064743A20A7
:10171000256C7500253032643A253032643A253024
:0317200032640030
:0D1723003031323334353637383961626386
:041730006465660086
:0417340000000000B1
:06173800000000000000AB
:00000001FF
