:020000040000FA
:0600000077EF01F0120091
:020006001200E6
:06000800E4EF00F012001D
:02000E000100EF
:0C0010000A0300006A0000000400000069
:04001C00D9CFE6FF53
:10002000E1CFD9FF040EE126DE6ADD6A020EDB6A4B
:10003000030EDB6A956AFAEC00F0E80E00016A5DD7
:10004000030E6B59000E6C59000E6D5963E3020EDE
:10005000DB2A030E01E3DB2A6A6B6B6B6C6B6D6B47
:1000600007EC01F0DE6ADD6ADECF10F0DDCF11F0C3
:10007000020EDBCF12F0030EDBCF13F01250105C38
:100080001350115834E26AC004F06BC005F06CC024
:1000900006F06DC007F0C80E096E0A6A0B6A0C6A9A
:1000A0000CEC01F0640E005C000E0158000E0258CA
:1000B000000E035802E2000E01D0010EE8B08C8E53
:1000C000E8A08C9EC80E00016A5D000E6B59000E00
:1000D0006C59000E6D590AE36A6B6B6B6C6B6D6B40
:1000E00007EC01F0DF2A010E01E3DB2ABDD78C9E6D
:1000F000D950020FE96EDACFEAFF0A0E0B6E0C6AD6
:10010000EECF06F0EDCF07F051EC01F002C0EEFFAC
:1001100003C0EDFF92D7040EE15C02E2E16AE55212
:0A012000E16EE552E7CFD9FF1200AF
:06012A000E0EF66E000E41
:10013000F76E000EF86E00010900F550656F0900BA
:10014000F550666F03E1656701D03DD00900F550B9
:10015000606F0900F550616F0900F550626F09008A
:100160000900F550E96E0900F550EA6E0900090032
:100170000900F550636F0900F550646F090009002C
:10018000F6CF67F0F7CF68F0F8CF69F060C0F6FF00
:1001900061C0F7FF62C0F8FF0001635302E16453DE
:1001A00007E00900F550EE6E6307F8E26407F9D73F
:1001B00067C0F6FF68C0F7FF69C0F8FF0001650778
:0801C000000E665BBFD71200C0
:0801C800DACFE4FFE2CFDAFF19
:1001D000E6529EA00BD09E90D10ECF6E200ECE6E1A
:1001E00000016A2B000E6B236C236D23E552E5CFD3
:1001F000DAFF1100D08EF28EF28E9D809E909F804D
:1002000006D8C50EE66E30EC01F0E5521200D10EB4
:08021000CF6E200ECE6E12002D
:08021800036A026A016A006A30
:10022000200EE76ED89004360536063607360036BF
:100230000136023603360950005C0A5001580B5053
:1002400002580C50035809E30950005E0A50015A45
:100250000B50025A0C50035A042AE72EE4D712001E
:10026000D9CFE6FFDACFE6FFE1CFD9FFE2CFDAFF61
:10027000FD0EDB507E0BCD6EFD0EDBAC02D0CD8EC5
:1002800001D0CD9ECF6ACE6A9E90DBAE02D09D801B
:1002900001D09D90CD80E552E5CFDAFFE7CFD9FFC1
:0202A00012004A
:0E02A200036A026A100EE76ED8900636073621
:1002B000023603360B50025C0C50035805E30B501A
:0E02C000025E0C50035A062AE72EF0D71200F9
:0202CE00000E20
:1002D000F36E00EE00F0080E01D81200EA6002D0C2
:0E02E000EE6AFCD7F350E9601200EE6AFCD71C
:0202EE0013EE0D
:1002F00000F023EE00F0F86A0F9C95EC00F003ECA0
:0A03000000F00EEC00F0FBD7120035
:04030A0000000000EF
:00000001FF
