:020000040000FA
:2000000060EF31F00000000000EF00F0000000000000000000000000F3D7FFFFFFFFFFFFCD
:20002000FFFFFFFFFFFFFFFFFFFFFFFFFFFFFFFFFFFFFFFFFFFFFFFFFFFFFFFFFFFFFFFFE0
:20004000FFFFFFFFFFFFFFFFFFFFFFFFFFFFFFFFFFFFFFFFFFFFFFFFFFFFFFFFFFFFFFFFC0
:20006000FFFFFFFFFFFFFFFFFFFFFFFFFFFFFFFFFFFFFFFFFFFFFFFFFFFFFFFFFFFFFFFFA0
:20008000FFFFFFFFFFFFFFFFFFFFFFFFFFFFFFFFFFFFFFFFFFFFFFFFFFFFFFFFFFFFFFFF80
:2062A000FFFFFFFFFFFFFFFFFFFFFFFFFFFFFFFFFFFFFFFFFFFFFFFFFFFFFFFF03001200E5
:2062C000156A166A176A186A000E006E040E016E0050011000E0000E5C6E050E5D6E400E7A
:2062E0005E6E050E5F6E85EC3BF00CEC3CF0005202E09BEC3BF04BEC3CF09C0E0C6ED70EE0
:206300000D6E0D2EFED70C2EFCD7D8DFFFD71E0E716E100E206E040E216E20C0E1FF21C05F
:20632000E2FFE69E20C0E1FF21C0E2FFE69C040E2024E16E000E2120E26EE68C180E1C6E8E
:20634000040E1D6E1CC0E1FF1DC0E2FFE69E1CC0E1FF1DC0E2FFE69C040E1C24E16E000EF7
:206360001D20E26EE68C020E2024E16E000E2120E26E23C0E6FF24C0E6FF010E2024E16EA9
:20638000000E2120E26E400EE66E20C0E9FF21C0EAFFEECF00F020C0E1FF21C0E2FF400EAD
:2063A0000014E66E20C0E9FF21C0EAFFEECF00F020C0E1FF21C0E2FF880E0010E66E20C0DA
:2063C0003BF021C03CF0040E2018006E00C020F012000B6A0A6A096A00500402F4CF09F07D
:2063E000F3CF08F001500502F4CF0BF0F3CF0AF000500502F3500926F4500A22E86A0B2259
:2064000001500402F3500926F4500A22E86A0B2208C000F009C001F00AC002F00BC003F0D8
:20642000120004012251010A0FE120C401F01F0E01160150000A08E1378E2151030A03E152
:20644000010E336E01D0336A2251000AD8A48BD020C401F01F0E01160150020AD8A483D085
:2064600024C401F00F0E01160150000AD8B47BD0378E24BF16D024C403F00F0E031603C07B
:2064800000F0000E016E0036009001361E0E0024E96E000E0120EA6EEECF04F0EECF05F001
:2064A00015D024C403F00F0E031603C000F0000E016E0036009001361A0E0024E96E000E08
:2064C0000120EA6EEECF04F0EECF05F02151030A07E104C0E1FF05C0E2FF840EE66E43D036
:2064E00024C400F00F0E0016700E026E0F0E036E00500226D8B0032A02C0E9FF03C0EAFF92
:20650000FE0EEE14006EEECF01F0FF0E011602C0E1FF03C0E2FF00C0E6FF01C0E6FF24AFC9
:2065200011D004C0E1FF05C0E2FFE66A040E0418006E00C004F004C0E1FF05C0E2FF400EF8
:20654000E66E11D004C0E1FF05C0E2FF880EE66E040E0418006E00C004F004C0E1FF05C019
:20656000E2FFC80EE66E1200000E395C02E1080E385C10E238C003F039C004F04E50000A5C
:2065800003E1010E4E6E05D04E50010A02E1020E4E6E04D0080E036E000E046E1AC0E1FF8A
:2065A0001BC0E2FFE6921AC0E1FF1BC0E2FFE6901AC0E9FF1BC0EAFFEECF00F01AC0E1FFCE
:2065C0001BC0E2FF04500010E66E010E1A24E16E000E1B20E26E03C0E6FF0350385C006E15
:2065E00004503958016E00C038F001C039F0280E516E040E526E37B02FD0035004102BE056
:2066000034C0F6FF35C0F7FF36C0F8FF0900F5CF00F051C0E1FF52C0E2FF00C0E6FF514AD8
:20662000522A010E3424006E000E3520016E000E3620026E00C034F001C035F002C036F0B1
:20664000010E035C006E000E0458016E00C003F001C004F0D2D724D00350041021E034C024
:20666000E9FF35C0EAFF51C0E1FF52C0E2FFEECFE6FF514A522A010E3424006E000E35207F
:20668000016E00C034F001C035F0010E035C006E000E0458016E00C003F001C004F0DCD7F1
:2066A000120020C401F01F0E01160150010A01E08DD004012451000A01E088D02151060AD6
:2066C0003FE134D02650010A17E19A0E006E780E016E000E026E120E0026000E01220222F9
:2066E00000C034F001C035F002C036F0090E386E000E396EC00E376E23D02650010A12E19C
:206700002D0E006E790E016E000E026E00C034F001C035F002C036F0210E386E000E396E20
:20672000C00E376E0DD0800E376E0AD004012351210AC8E02351220AE0E02351230AF3E0DC
:2067400020C401F0600E0116050E006E005004E00132019EFF0FFBD70150010A01E036D035
:2067600022D034D033D04D0E346E000E356E010E386E000E396EC10E376E28D0800E376E69
:2067800023C44DF023D04C0E346E000E356E010E386E000E396E810E376E18D0800E376E7C
:2067A00022C44CF013D004012151010ADAE02151090AD8E02151020AD6E021510A0ADEE0E3
:2067C0002151030AE0E021510B0AE8E0120004012051800AD8A471D0C00E376E64D04E0E59
:2067E000006E790E016E000E026E00C034F001C035F002C036F0120E386E000E396E5DD05D
:20680000030E006E000E016E22C404F0000E056EE0DD270E0024E96E000E0120EA6EEECF70
:2068200034F0EECF35F0EECF36F0020E3424F66E000E3520F76E000E3620F86E0900F5CF44
:2068400000F00900F5CF01F000C038F001C039F034D02251195C23E3030E006E000E016ECA
:2068600022C404F0000E056EB4DD2A0E0024E96E000E0120EA6EEECF34F0EECF35F0EECF72
:2068800036F034C0F6FF35C0F7FF36C0F8FF0900F5CF00F000C038F0000E396E01D0376A45
:2068A0000CD0376A0AD02351010A99E02351020AA7E02351030ACDE0F4D71200378E716AD7
:2068C000226A22C426F02650000A03E1100E256E03D0200E256E1BDD12000401286B296B51
:2068E00042D0378E28813350010AD8B4288350D0378E4ED0378E24BF16D024C403F00F0ECA
:20690000031603C000F0000E016E0036009001361E0E0024E96E000E0120EA6EEECF04F052
:20692000EECF05F015D024C403F00F0E031603C000F0000E016E0036009001361A0E002436
:20694000E96E000E0120EA6EEECF04F0EECF05F004C0E9FF05C0EAFFEECF01F001A402D077
:20696000010E286F15D020C401F01F0E01160150000AB7E020C401F01F0E01160150010A0C
:20698000B7E020C401F01F0E01160150020AB2E037AE07D0280E346E040E356E3780020E48
:2069A000386E12009A0E276E780E286E000E296E600E2A6E790E2B6E000E2C6EE90E2D6EC1
:2069C000780E2E6E000E2F6EC30E306E780E316E000E326E12003A5201E063DE1200160EB2
:2069E0006F6E9F0E6B6E3B0E696E12006D9837BE49D055AE28D0020E4B6E010E1A24E16E8F
:206A0000000E1B20E26EE66A1AC0E1FF1BC0E2FFC80EE66E010E4F24E16E000E5020E26E4E
:206A2000080EE66E020E4F24E16E000E5020E26E280EE66E040EE66E4FC0E1FF50C0E2FF7C
:206A4000C80EE66E1ED0010E4F24E16E000E5020E26E080EE66E020E4F24E16E000E5020C5
:206A6000E26E200EE66E040EE66E4FC0E1FF50C0E2FF8C0EE66E1AC0E1FF1BC0E2FF840E08
:206A8000E66E7DD055BE7BD0040120AF51D03950275D02E13850265D04E226C438F027C424
:206AA00039F062DD010E4B6E010E4F24E16E000E5020E26E080EE66E020E4F24E16E000EBD
:206AC0005020E26E200EE66E040EE66E4FC0E1FF50C0E2FF800EE66E416A010E3F24E16EE0
:206AE000000E4020E26E080EE66E020E3F24E16E000E4020E26E200EE66E040EE66E3FC007
:206B0000E1FF40C0E2FF840EE66E010E416E020E1A24E16E000E1B20E26E280EE66E040E3E
:206B2000E66E1AC0E1FF1BC0E2FFC80EE66E27D0020E4B6E010E1A24E16E000E1B20E26E6C
:206B4000E66A1AC0E1FF1BC0E2FFC80EE66E010E4F24E16E000E5020E26E080EE66E020E2C
:206B60004F24E16E000E5020E26E280EE66E040EE66E4FC0E1FF50C0E2FFC80EE66E120079
:206B8000010E3F24E96E000E4020EA6EEECF00F000C002F0000E575C02E10250565C03E27A
:206BA00056C002F00AD00250565C006E000E5758016E00C056F001C057F0036A0250035C29
:206BC0001CE2280EE96E040EEA6E0350E926D8B0EA2AEECF00F053C0E1FF54C0E2FF00C06D
:206BE000E6FF010E5324006E000E5420016E00C053F001C054F0032AE1D7000E006E5750BB
:206C0000005C02E15650000828E2010E4F24E16E000E5020E26E080EE66E020E4F24E16EA2
:206C2000000E5020E26E280EE66E040EE66E3FC0E9FF40C0EAFFEECF00F000BC07D04FC077
:206C4000E1FF50C0E2FFC80EE66E06D04FC0E1FF50C0E2FF880EE66E19D0010E4F24E16EDF
:206C6000000E5020E26E080EE66E020E4F24E16E000E5020E26E200EE66E040EE66E4FC045
:206C8000E1FF50C0E2FF840EE66E559E120020C401F0600E0116050E006E005004E00132F6
:206CA000019EFF0FFBD70150000A01E059D035D0378E080E256E54D08ADD52D0FFDD50D0D4
:206CC000260E346E000E356E3780010E386E378E47D003DE45D011EC32F042D0220E006E20
:206CE000000E016E24510026D8B0012A00C034F001C035F03780010E386E378E31D0378E08
:206D0000220EE16E000EE26E2451E126D8B0E22A22C4E6FF25D024D023D004012151050A59
:206D2000C7E02151060AC8E02151090AC7E02151080AC6E02151000ACCE02151010ACBE0DC
:206D40002151030AC8E021510A0AC8E021510B0AD6E02151070ADFE021510C0ADDE0DCD767
:206D600012004B6A1AC0E1FF1BC0E2FFE66A040E1A18E16E1BC0E2FF000EE21AE66A55BECA
:206D8000559E1200A19A12006D92699468A403D0FB0E6816FBD712001AC0E9FF1BC0EAFFD5
:206DA000EECF00F000AE05D01AC0E1FF1BC0E2FFE66A4E6A4B6A386A396A376A68DF0BDE5A
:206DC00015DE1200040E1A18006E00C01AF02550080A0AE122C46EFF6E50000803E2100EA4
:206DE000256E02D0040E256E4B50010A3BE1020E1A24E16E000E1B20E26E280EE66E040EF5
:206E0000E66EB4EC32F04E50020A07E11AC0E1FF1BC0E2FF840EE66E24D0040E1A18006EC8
:206E200000C01AF01AC0E9FF1BC0EAFFEECF00F000BC0CD0040E1A18006E00C01AF01AC067
:206E4000E1FF1BC0E2FFC80EE66E0BD0040E1A18006E00C01AF01AC0E1FF1BC0E2FF880E09
:206E6000E66E01D07EDF12006984EF0E68166D82120070A019D03FC0E9FF40C0EAFFEECF8F
:206E800001F00150800A0FE11AC0E9FF1BC0EAFFEECF01F00150840A06E13FC0E1FF40C05D
:206EA000E2FF8C0EE66E7090DF0E681612004B50020A02E165DE1ED054DF4150000A19E103
:206EC000010E4F24E16E000E5020E26E080EE66E020E4F24E16E000E5020E26E200EE66E87
:206EE000040EE66E4FC0E1FF50C0E2FF8C0EE66E01D0416A120056DD3B6A3C6A3D6A3E6A03
:206F00006A6A686A6CDD6D8C6E6A716A6D9C476A486A000E485C02E1080E475C17E247C01C
:206F200000F048C001F0003600900136003600900136000E0024E16E040E0120E26EE66A1A
:206F4000E66AE66AE66A474A482AE3D7160E706E68A603D0F70E6816FBD7376A556A566A2C
:206F6000576A6D98080E1A6E040E1B6E266A256A12002550000A09E16D6A696A30DD6DB69E
:206F800002D06D86FCD7010E256E2550010A08E16DBA06D0686A696A69806988020E256E2F
:206FA00068A405D069A403D0FB0E6816EDDE6DA202D0E8DED6D068A018D069A016D09BDF18
:206FC000040E256E200E0401026F040E036F080E016F000E0015006E00C000F48C0E00116E
:206FE000006E00C000F4FE0E681668A805D069A803D03ADFEF0E681668AC04D069AC02D0B9
:20700000BF0E681668AA03D069AA01D032DF68A202D069B26A6A040E255C02E2B3DEA1D007
:2070200069A69ED00001766B040E765DD8B098D068A692D06CCF46F0F70E6816780E4614D8
:20704000016E0150000AD8A486D0FD0E4614016E026AFF0E0216000E021802E1000E0118FD
:207060006CE17E0E4614016E01C003F00332039E03C000F0000E016E003600900136003681
:2070800000900136000E0024026E040E0120036E02C03FF003C040F002C04FF003C050F0FB
:2070A000040E4F18006E00C04FF002C0E9FF03C0EAFFEECF00F000C001F03C0E01160132A2
:2070C000019E0132019E01500D0A35E1020E3F24E96E000E4020EA6EEECF01F0EECF02F0D4
:2070E0000250040A02E1280E011823E10001020E3F24E16E000E4020E26E200EE66E040EE5
:20710000E66E756B080E755D14E2200EE16E040EE26E7551E126D8B0E22A280EE96E040E7E
:20712000EA6E7551E926D8B0EA2AEECFE6FF752BE9D732DE01D0BBDE0DD0FD0E4614016E59
:20714000026AFF0E0216000E021802E1040E011801E138DE00D001D003D00001762B64D71F
:2071600011DE120000017651000A12E075C000F0000E016E0036009001361A0E0024E96E08
:20718000000E0120EA6EEECF04F0EECF05F011D075C000F0000E016E0036009001361E0E59
:2071A0000024E96E000E0120EA6EEECF04F0EECF05F0020E0424E16E000E0520E26E77C029
:2071C000E6FF78C0E6FF010E0424E16E000E0520E26E79C0E6FF04C0E9FF05C0EAFFEECF6F
:2071E00000F004C0E1FF05C0E2FF400E0014E66E04C0E9FF05C0EAFFEECF00F004C0E1FFF4
:2072000005C0E2FF880E0010E66E7651000A1BE075C000F0000E016E0036009001361A0E3B
:207220000024026E000E0120036E02C0E9FF03C0EAFF040EEE18006E02C0E1FF03C0E2FFF8
:2072400000C0E6FF1AD075C000F0000E016E0036009001361E0E0024026E000E0120036EA0
:2072600002C0E9FF03C0EAFF040EEE18006E02C0E1FF03C0E2FF00C0E6FF04C000F005C0CE
:2072800001F01200000E0001761902E1000E751902E1016A09D075C0E9FF76C0EAFFEECFAE
:2072A00000F0016A00BE012A01C000F01200200E255C03E36DB201D002D0006A39D03DC000
:2072C00075F03EC076F0DEDF005231E174C075F0010E766F71C077F072C078F073C079F069
:2072E00041DF00C03DF001C03EF0426A436A446A456A3DC075F03EC076F0C4DF00520EE033
:20730000000E016E0150000A01E133DE425043104410451002E0006A0BD0EBD7010E3D24BB
:20732000E96E000E3E20EA6EEECF00F001D0006A1200D08EA28AA08AF28E12004E0E006E28
:20734000790E016E000E026E0E0E0024F66E000E0120F76E000E0220F86E0900F5CF03F02B
:2073600003C004F00F0E0024F66E000E0120F76E000E0220F86E0900F5CF01F00150035C19
:2073800012E24E0E006E790E016E000E026E0F0E0024F66E000E0120F76E000E0220F86EEC
:2073A0000900F5CF04F04E0E006E790E016E000E026E100E0024F66E000E0120F76E000E86
:2073C0000220F86E0900F5CF01F00150045C12E24E0E006E790E016E000E026E100E002442
:2073E000F66E000E0120F76E000E0220F86E0900F5CF04F004C000F01200200E255C03E3E3
:207400006DB201D002D0006A23D03BC075F03CC076F038DF00521BE1010E3B24E96E000E53
:207420003C20EA6EEECF00F000C06FF06EC075F0766B6BC077F06CC078F06DC079F092DE2C
:2074400000C03BF001C03CF06FC000F001D0006A12006BC071F06CC072F06DC073F0010E2F
:207460000001746F24DF120000016E6B6F6B706B020E6B25F66E000E6C21F76E000E6D21E4
:20748000F86E0900F5CF05F0030E6B25F66E000E6C21F76E000E6D21F86E0900F5CF00F000
:2074A00000C003F0000E046E03C001F0006A05500024066E000E0120076E6BC008F06CC09B
:2074C00009F06DC00AF0010E0824F66E000E0920F76E000E0A20F86E0900F5CF01F00150A4
:2074E000020A1BE1060E0824F66E000E0920F76E000E0A20F86E0900F5CF01F001506E5DCC
:207500000CE2060E0824F66E000E0920F76E000E0A20F86E0900F5CF6EF0010E0824F66ED5
:20752000000E0920F76E000E0A20F86E0900F5CF01F00150040A1BE1080E0824F66E000E44
:207540000920F76E000E0A20F86E0900F5CF01F001506E5D0CE2080E0824F66E000E09205A
:20756000F76E000E0A20F86E0900F5CF6EF008C0F6FF09C0F7FF0AC0F8FF0900F5CF00F0E3
:2075800000506F25016E000E7021026E01C06FF002C070F00750025C02E10650015C01E318
:2075A0000FD008C0F6FF09C0F7FF0AC0F8FF0900F5CF00F000500826000E09220A2283D7B5
:2075C0006EC000F01200BADE00C060F09A0E00016B6F780E6C6F000E6D6F46DF00C065F0CB
:2075E0006051005C03E260C000F002D065C000F012002550000A0BE16D6A696AEFEC34F07C
:2076000098DE6DB602D06D86FCD7010E256E120023C06BF024C06CF0400E00016D6F010ECD
:207620006E6FEBDE12001750000A0EE1000E000A03E10F0E0501001901E006D001C517F076
:2076400002C516F003C515F012006D6A696A256A1200F2CF00F0F29E65C0F6FF66C0F7FFBC
:2076600067C0F8FFA68EBF0EA616A684A688550EA76EAA0EA76EA682A69400BE02D0F29E10
:2076800001D0F28E1200F2CF02F0F29E65C0F6FF66C0F7FF67C0F8FF69C0E9FF6AC0EAFFCC
:2076A0000A00016A200E015C07E2EECFF5FF00000F000000012AF6D7A68EBF0EA616A68442
:2076C000550EA76EAA0EA76EA682A69402BE02D0F29E01D0F28E12000F0E0501406F60C08C
:2076E00041F5400E00016B6F050E6C6F400E6D6FB0DE005201E1F5D712000900F5CFE6FFC1
:207700000006FBE10106F9E112005DDF00C019F0010E3A6E5CC023F05DC024F05EC049F021
:207720005FC04AF07BEC37F0000E016E0150010A01E15FDF12001DDC6BDF0052D8B46AD0FC
:2077400072DF1750030A23E118B002D0188019D0000E000808E1000E000805E1620E165C68
:2077600002E1C00E155C0DE215C065F016C066F0000E0001676F686F040E696F050E6A6F10
:2077800082DF030E0001606FA7DF176A43D01750040A38E15C6A5D6A16505D5C02E115500B
:2077A0005C5C2AE2060E006E5CC061F05DC062F0005006E00001613761916237FF0FF9D76F
:2077C0000001000E636F646F000E645D08E1000E635D05E1620E625D02E1C00E615D09E200
:2077E00061C065F062C066F063C067F064C068F030DF5C4A5D2AD0D7040E0001606F6CDF95
:20780000176A08D01750020A05E1020E0001606F63DF01D090D71200580E5C6E1B0E5D6E26
:207820005CC000F05DC001F0010E5C5E000E5D5A005001102EE0B9EC37F0EADE00521FE04C
:20784000F2DE1750010A1BE1220E016E420EE16E050EE26E0B0EF66E790EF76E000EF86E6C
:207860000900F5CF00F000C0E6FF0106F9E1010E0001606F31DF176A010E006E0BD0100EDF
:207880000C6E940E0D6E0D2EFED70C2EFCD70000C7D7006A1200D9DE12000902290001011B
:2078A0000080320904000002030000000921010100012221000705810340000107050103B3
:2078C00040000126035500530042002000480049004400200042006F006F0074006C006FD0
:2078E00000610064006500720022034D0069006B0072006F0065006C0065006B007400723E
:20790000006F006E0069006B006100020080000040002000C06200000001504943313846C5
:20792000343535300000000000000000000600FF0901A10119012940150026FF00750895F9
:2079400040810219012940750895409102C012010002000000080100010001000102000118
:2079600004030904FFFFFFFFFFFFFFFFFFFFFFFFFFFFFFFFFFFFFFFFFFFFFFFFFFFFFFFF0F
:20798000FFFFFFFFFFFFFFFFFFFFFFFFFFFFFFFFFFFFFFFFFFFFFFFFFFFFFFFFFFFFFFFF07
:2079A000FFFFFFFFFFFFFFFFFFFFFFFFFFFFFFFFFFFFFFFFFFFFFFFFFFFFFFFFFFFFFFFFE7
:2079C000FFFFFFFFFFFFFFFFFFFFFFFFFFFFFFFFFFFFFFFFFFFFFFFFFFFFFFFFFFFFFFFFC7
:2079E000FFFFFFFFFFFFFFFFFFFFFFFFFFFFFFFFFFFFFFFFFFFFFFFFFFFFFFFFFFFFFFFFA7
:020000040020DA
:020000040030CA
:0E000000E43EFFFEFFFB9AFFFFFFFFFFFFFF46
:00000001FF
