:020000040000FA
:0600000049EF01F01200BF
:020006001200E6
:060008001CEF00F01200E5
:02000E000000F0
:020010000000EE
:0400120000000000EA
:06001800CEEF00F0120023
:02001E000200DE
:10002000120000006E000000040000000E0000003E
:080030006A000000040000005A
:08003800DACFE4FFE2CFDAFFAA
:10004000E652F2A209D0F2926EC06AF06FC06BF075
:1000500070C06CF071C06DF0E552E5CFDAFF1100B1
:10006000956A93680F0EC16EF18EF28ED08EF28E6D
:10007000F288F292F18CEBEC00F003006EC004F019
:100080006FC005F070C006F071C007F0E80E096E91
:10009000030E0A6E0B6A0C6AFAEC00F0F40E005CB8
:1000A000010E0158000E0258000E035802E2000E25
:1000B00001D0010EE8B08C8EE8A08C9E6A0EE96E2D
:1000C000000EEA6EEE5000016E5D106EEE50000103
:1000D0006F59116EEE5000017059126EEE50000112
:1000E0007159136E640E105C000E1158000E1258F8
:0E00F000000E135802E38C7C0300C0D71200F0
:0200FE001E0ED4
:10010000F66E000EF76E000EF86E00010900F55055
:10011000656F0900F550666F03E1656701D03DD05A
:100120000900F550606F0900F550616F0900F55046
:10013000626F09000900F550E96E0900F550EA6E9A
:10014000090009000900F550636F0900F550646F5C
:1001500009000900F6CF67F0F7CF68F0F8CF69F033
:1001600060C0F6FF61C0F7FF62C0F8FF0001635393
:1001700002E1645307E00900F550EE6E6307F8E210
:100180006407F9D767C0F6FF68C0F7FF69C0F8FFDA
:0C01900000016507000E665BBFD712007F
:04019C00D8CFE4FFD5
:1001A000E0CFE4FFE46EDACFE4FFE2CFDAFFE6521D
:1001B0009EA208D09E92040E00016E27000E6F23AF
:1001C00070237123E552E5CFDAFFE550E5CFE0FF7C
:1001D000E5CFD8FF1000D08EF28EF28CF28E9D8289
:1001E0009F92F90ECB6E9E92DE0EE66E1EEC01F033
:0401F000E5521200C2
:0C01F400036A026A016A006A200EE76ECE
:10020000D8900436053606360736003601360236F3
:1002100003360950005C0A5001580B5002580C502C
:10022000035809E30950005E0A50015A0B50025A64
:0C0230000C50035A042AE72EE4D71200F9
:04023C00D9CFE6FF31
:10024000DACFE6FFE1CFD9FFE2CFDAFFFD0EDB50D8
:10025000FB0BCA6ECC6A9E92FD0EDBAE02D09D8275
:1002600001D09D92CA84E552E5CFDAFFE7CFD9FFEE
:0202700012007A
:0E027200000EF36E00EE00F0080E01D8120030
:10028000EA6002D0EE6AFCD7F350E9601200EE6A31
:02029000FCD799
:0E02920013EE00F023EE00F0F86A0F9C7FECF4
:0E02A00000F003EC00F030EC00F0FBD7120091
:020000040030CA
:010003001EDE
:010005008179
:00000001FF
