:020000040000FA
:060000006EEF02F0120099
:0A0006000100F80400006A00000089
:0400100004000000E8
:020014001200D8
:06001800E3EF01F012000D
:02001E000F0EC3
:10002000E66EE66AC1D8E552E552936A95909592DC
:10003000380EE66E13D8E552010EE66E0FD8E55283
:100040000C0EE66E0BD8E552060EE66E07D8E552AA
:100050001200010EE66E02D8E5521200D9CFE6FF7B
:10006000E1CFD9FFFE0EDB508A6E8C908C828C9291
:10007000030EE66EE66A98D8E552E552E552E7CF00
:10008000D9FF1200D9CFE6FFE1CFD9FFFE0EDB503A
:100090008A6E8C808C828C92010EE66EE66A84D821
:1000A000E552E552E552E7CFD9FF1200D9CFE6FF7E
:1000B000E1CFD9FFE652DF6AFC0EDB5001080AE30C
:1000C000FD0EDB500F0B8009DF6EDFCFE6FFC6DFD2
:1000D000E55209D0FD0EDB500F0BC009DF6EDFCFFC
:1000E000E6FFBCDFE552050EE66EE66A5DD8E55236
:1000F000E552FE0EDBCFE6FFC5DFE552E552E552E5
:10010000E7CFD9FF1200D9CFE6FFE1CFD9FFFD0E2F
:10011000DBCFE9FFFE0EDBCFEAFFEF5010E0FD0E74
:10012000DBCFE9FFFE0EDBCFEAFFEF50E66EAADF82
:10013000E552FD0EDB2AFE0E01E3DB2AE8D7E5528D
:10014000E7CFD9FF1200D9CFE6FFE1CFD9FFE652C2
:10015000DF6AFB0EDB5001080AE3FC0EDB500F0BDD
:100160008009DF6EDFCFE6FF79DFE55209D0FC0EB4
:10017000DB500F0BC009DF6EDFCFE6FF6FDFE5520C
:10018000050EE66EE66A10D8E552E552FD0EDBCFAD
:10019000E6FFFE0EDBCFE6FFB6DFE552E552E552A5
:1001A000E552E7CFD9FF1200D9CFE6FFE1CFD9FF63
:1001B000020EE126DE6ADD6ADECF10F0DDCF11F03F
:1001C000FD0EDBCF12F0FE0EDBCF13F01250105CF1
:1001D000135011580AE20C0EE66E4EEC02F0E55296
:1001E000DF2A010E01E3DB2AE7D7020EE15C02E21F
:0E01F000E16AE552E16EE552E7CFD9FF120059
:0201FE00D9CF57
:10020000E6FFE1CFD9FF0D0EE126DE6ADE6ADE6A87
:10021000DD6ADD52DD52D950040FE96EDACFEAFF14
:100220007B0EEE6E200EEE6E4A0EEE6E760EEE6ECB
:10023000630EEE6E720EEE6E200EEE6E7D0EEE6EA4
:10024000EE6A956A936A00EC02F00FEC00F06AC067
:1002500004F06BC005F06CC006F06DC007F0E80E4E
:10026000096E030E0A6E0B6A0C6A0FEC02F0F40EB4
:10027000005C010E0158000E0258000E035802E205
:10028000000E01D0010EE8B08C8EE8A08C9ED9CF74
:10029000E9FFDACFEAFFEE5000016A5D106EEE5022
:1002A0006B59116EEE506C59126EEE506D59136E03
:1002B000E80E105C030E1158000E1258000E135871
:1002C00028E329EC00F0010EE66E040EE66ED9502C
:1002D000040FE66E000EDA20E66EA3EC00F0E552A5
:1002E000E552E552E552020EE66E0F0EE66E780E0E
:1002F000E66E56EC00F0E552E552E5526AC0DFFFCB
:10030000010E6BC0DBFF020E6CC0DBFF030E6DC085
:10031000DBFF9DD70D0EE15C02E2E16AE552E16E82
:08032000E552E7CFD9FF1200FE
:08032800060EF66E000EF76EE2
:10033000000EF86E00010900F550656F0900F550D8
:10034000666F03E1656701D03DD00900F550606F2D
:100350000900F550616F0900F550626F090009004E
:10036000F550E96E0900F550EA6E09000900090030
:10037000F550636F0900F550646F09000900F6CF6E
:1003800067F0F7CF68F0F8CF69F060C0F6FF61C0A2
:10039000F7FF62C0F8FF0001635302E1645307E016
:1003A0000900F550EE6E6307F8E26407F9D767C0FD
:1003B000F6FF68C0F7FF69C0F8FF00016507000E8F
:0603C000665BBFD71200CE
:0A03C600D8CFE4FFE0CFE4FFE46EBF
:1003D000DACFE4FFE2CFDAFFE6529EA208D09E9287
:1003E000040E00016A27000E6B236C236D23E55277
:1003F000E5CFDAFFE550E5CFE0FFE5CFD8FF10000D
:10040000D08EF28EF28CF28E9D829F92F90ECB6E80
:0E0410009E92DE0EE66E33EC02F0E552120014
:02041E00036A6F
:10042000026A016A006A200EE76ED890043605362B
:100430000636073600360136023603360950005CB0
:100440000A5001580B5002580C50035809E3095048
:10045000005E0A50015A0B50025A0C50035A042AEB
:06046000E72EE4D71200B4
:0A046600D9CFE6FFDACFE6FFE1CFC1
:10047000D9FFE2CFDAFFFD0EDB50FB0BCA6ECC6A70
:100480009E92FD0EDBAE02D09D8201D09D92CA8469
:0C049000E552E5CFDAFFE7CFD9FF1200FC
:04049C00FF0EE3501C
:1004A000146E480E01D04C0EE76EE72EFED7E76AB9
:0C04B000E72EFED7142EF7D70000120034
:0404BC00000EF36ECD
:1004C00000EE00F0080E01D81200EA6002D0EE6AD9
:0C04D000FCD7F350E9601200EE6AFCD784
:0404DC0013EE00F02B
:1004E00023EE00F0F86A0F9C94EC01F00AEC00F0A7
:0804F000FFEC00F0FBD7120045
:0404F8000000000000
:020000040030CA
:010003001EDE
:010005008179
:00000001FF
