:020000040000FA
:060000005CEF02F01200AB
:020006001200E6
:0600080095EF01F012006B
:02000E000100EF
:0C001000F40400006A000000040000007E
:04001C00D9CFE6FF53
:10002000E1CFD9FF040EE126DE6ADD6A020EDB6A4B
:10003000030EDB6A956A010E926EABEC01F0040EC2
:10004000E66E02EC02F0E552950EE66E1DEC02F053
:10005000E552020EDBCFE6FF030EDBCFE6FF66ECD8
:1000600001F0E552E552FE0EE66E040EE66EED0E70
:10007000E66E2FEC01F0E552E552E552870EE66E92
:1000800035EC02F0E5526AC004F06BC005F06CC0BC
:1000900006F06DC007F0E80E096E030E0A6E0B6ADB
:1000A0000C6ABDEC01F0F40E005C010E0158000E6C
:1000B0000258000E035802E2000E01D0010EE8B013
:1000C0008C8EE8A08C9E78EC02F073EC02F00009B4
:1000D00001E0FBD76AEC02F0F3CFDEFFF4CFDDFFE7
:1000E000DECF04F0DDCF05F0066A076A580E096E10
:1000F000020E0A6E0B6A0C6AF7EC00F000C004F006
:1001000001C005F002C006F003C007F00968030E45
:100110000A6E0B6A0C6ABDEC01F0020E04C0DBFF34
:10012000030E05C0DBFF020EDBCFE6FF030EDBCFC5
:10013000E6FF66EC01F0E552E552A5D7040EE15C5E
:1001400002E2E16AE552E16EE552E7CFD9FF120023
:100150000E0EF66E000EF76E000EF86E000109002E
:10016000F550656F0900F550666F03E1656701D0D2
:100170003DD00900F550606F0900F550616F09002E
:10018000F550626F09000900F550E96E0900F5505D
:10019000EA6E090009000900F550636F0900F55087
:1001A000646F09000900F6CF67F0F7CF68F0F8CF69
:1001B00069F060C0F6FF61C0F7FF62C0F8FF0001A0
:1001C000635302E1645307E00900F550EE6E6307E4
:1001D000F8E26407F9D767C0F6FF68C0F7FF69C0A7
:0E01E000F8FF00016507000E665BBFD7120036
:0201EE000450BB
:1001F0000902F3CF00F0F4CF01F00A02F350012618
:10020000000EF420026E04500B02F3500226000E82
:10021000F420036E04500C02F3500326055009022B
:10022000F3500126F4500222000E032205500A0268
:10023000F3500226F450032205500B02F35003261C
:1002400006500902F3500226F450032206500A0217
:0E025000F350032607500902F3500326120054
:02025E00D9CFF6
:10026000E6FFDACFE6FFE1CFD9FFE2CFDAFFC26ADD
:10027000C06AFC0EDB407F0B3C0BC26EFC0EDB3811
:10028000F00B300B106EFB0EDB500F0B1010C16E1D
:10029000FD0EDB50040DF350380B116EFD0EDB38F4
:1002A0000F0B070B106EFD0EDB50800B10101110A2
:1002B000C06EFC0EDBAE03D09E9C9D8CF28CC28087
:0C02C000E552E5CFDAFFE7CFD9FF1200CE
:0402CC00D9CFE6FFA1
:1002D000DACFE6FFE1CFD9FFE2CFDAFFE652E6520E
:1002E000FC0EDBCF10F0FD0EDBCF11F0060ED89028
:1002F00010361136E804FBE110C0DEFF11C0DDFF4F
:10030000010EDB50BE6EDF50E840E8403F0B300B83
:10031000106ECF0EBD141010BD6EE552E552E552C1
:0A032000E5CFDAFFE7CFD9FF1200A6
:06032A00DACFE4FFE2CF90
:10033000DAFFE6529EA00BD09E90D10ECF6E200E1B
:10034000CE6E00016A2B000E6B236C236D23E552E9
:10035000E5CFDAFF1100D08EF28EF28E9D809E9056
:100360009F8006D8C50EE66EE1EC01F0E552120062
:0A037000D10ECF6E200ECE6E1200EB
:06037A00036A026A016A39
:10038000006A200EE76ED89004360536063607362A
:1003900000360136023603360950005C0A50015817
:1003A0000B5002580C50035809E30950005E0A50E4
:1003B000015A0B50025A0C50035A042AE72EE4D774
:0203C000120029
:0E03C200D9CFE6FFDACFE6FFE1CFD9FFE2CFD9
:1003D000DAFFFD0EDB507E0BCD6EFD0EDBAC02D0E6
:1003E000CD8E01D0CD9ECF6ACE6A9E90DBAE02D07C
:1003F0009D8001D09D90CD80E552E5CFDAFFE7CF1B
:04040000D9FF12000E
:0C040400D9CFE6FFDACFE6FFE1CFD9FF49
:10041000E2CFDAFFFD0EDB50FB0BCA6ECC6A9E9278
:10042000FD0EDBAE02D09D8201D09D92CA84E552C2
:0A043000E5CFDAFFE7CFD9FF120095
:06043A00D9CFE6FFDACF86
:10044000E6FFE1CFD9FFE2CFDAFF0C0EBD129494A4
:10045000CA94FD0EDB50CB6ECA84E552E5CFDAFFBD
:0A046000E7CFD9FF120094941200B8
:06046A00D9CFE6FFDACF56
:10047000E6FFE1CFD9FFE2CFDAFFC30EC214106E60
:10048000FD0EDB407F0B3C0B1010C26EE552E5CF3A
:08049000DAFFE7CFD9FF1200EB
:08049800000EF36E00EE00F00F
:1004A000080E01D81200EA6002D0EE6AFCD7F350C1
:0804B000E9601200EE6AFCD7BE
:0804B80013EE00F023EE00F04A
:1004C000F86A0F9CA8EC00F003EC00F00EEC00F0D2
:0404D000FBD7120044
:0C04D400C450136E126AC3501210F36E75
:0604E00013C0F4FF12003E
:0A04E600C250020B01E0010E1200EB
:0404F000C2821200B2
:0404F4000000000004
:020000040030CA
:010005008377
:00000001FF
