:020000040000FA
:06000000FDEF01F012000B
:020006001200E6
:0400080000000000F4
:04000C0000000000F0
:020010000000EE
:0600180082EF01F012006E
:02001E000200DE
:100020000C0000006A00000006000000080000004C
:08003000700000000400000054
:08003800D9CFE6FFE1CFD9FFAB
:10004000020EE126DF6A010EDB6A956AE00E936E0E
:100050000F0EC16EF18E9FEC01F08C9A70C004F00F
:1000600071C005F072C006F073C007F0E80E096EAB
:10007000030E0A6E0B6A0C6AAEEC01F0F40E005C23
:10008000010E0158000E0258000E035802E2000E45
:1000900001D0010EE8B08C8EE8A08C9E8150800BC0
:1000A00002E08C8C01D08C9CD9CFE9FFDACFEAFF3B
:1000B0008150400B02E0EF8001D0EF90D9CFE9FFF3
:1000C000DACFEAFF8150200B02E0EF8201D0EF92FD
:1000D0008150400B03E08150200B02E1000E01D063
:1000E000010E106ED9CFE9FFDACFEAFF1050010BF5
:1000F000F36EF346F346FB0EEF14F310EF6E700E43
:10010000E66E000EE66ED9CFE6FFDACFE6FFDDEC55
:1001100000F0E552E552E552E552D9CFE9FFDACFDA
:10012000EAFFEF50040B0BE0010EDB5002E0000E83
:1001300001D0010EE76E010EE7CFDBFF11D0D9CF62
:10014000E9FFDACFEAFFEF50010B02E08C7A08D02A
:10015000D9CFE9FFDACFEAFFEF50020B01E08C784C
:10016000010EDB501FE070C004F071C005F072C0DA
:1001700006F073C007F0640E096E0A6A0B6A0C6A17
:10018000AEEC01F0320E005C000E0158000E025879
:10019000000E035802E2000E01D0010EE8B08C8878
:1001A000E8A08C985BD7020EE15C02E2E16AE552BE
:0A01B000E16EE552E7CFD9FF12001F
:0601BA00D9CFE6FFE1CF02
:1001C000D9FFFD0EDBCFE9FFFE0EDBCFEAFFEF50DC
:1001D00000016E5D17E0FD0EDBCFE9FFFE0EDBCF09
:1001E000EAFFEFCF6EF06F6BFB0EDBCFE9FFFC0E8B
:1001F000DBCFEAFFEECF6AF0EECF6BF0EECF6CF024
:10020000EFCF6DF0FB0EDBCFE9FFFC0EDBCFEAFF9B
:100210006A51EE5C106E6B51EE58116E6C51EE58D7
:10022000126E6D51EE58136E320E105C000E1158A6
:10023000000E1258000E135802E36F5108E0FD0E35
:10024000DBCFE9FFFE0EDBCFEAFFEF6A08D0FD0E41
:10025000DBCFE9FFFE0EDBCFEAFFEFCF6FF0E55219
:06026000E7CFD9FF1200F8
:0A0266001E0EF66E000EF76E000E7D
:10027000F86E00010900F550656F0900F550666FD2
:1002800003E1656701D03DD00900F550606F0900BA
:10029000F550616F0900F550626F09000900F550D3
:1002A000E96E0900F550EA6E090009000900F550F1
:1002B000636F0900F550646F09000900F6CF67F01D
:1002C000F7CF68F0F8CF69F060C0F6FF61C0F7FFC4
:1002D00062C0F8FF0001635302E1645307E00900C4
:1002E000F550EE6E6307F8E26407F9D767C0F6FFD2
:1002F00068C0F7FF69C0F8FF00016507000E665B84
:04030000BFD7120051
:0C030400D8CFE4FFE0CFE4FFE46EDACFD6
:10031000E4FFE2CFDAFFE6529EA208D09E92040EDE
:1003200000017027000E712372237323E552E5CF7D
:10033000DAFFE550E5CFE0FFE5CFD8FF1000D08E23
:10034000F28EF28CF28E9D829F92F90ECB6E9E926F
:0C035000DE0EE66ED2EC01F0E552120069
:04035C00036A026AC4
:10036000016A006A200EE76ED8900436053606361C
:10037000073600360136023603360950005C0A5053
:1003800001580B5002580C50035809E30950005E05
:100390000A50015A0B50025A0C50035A042AE72EF5
:0403A000E4D712008C
:0C03A400D9CFE6FFDACFE6FFE1CFD9FFAA
:1003B000E2CFDAFFFD0EDB50FB0BCA6ECC6A9E92D9
:1003C000FD0EDBAE02D09D8201D09D92CA84E55223
:0A03D000E5CFDAFFE7CFD9FF1200F6
:0603DA00000EF36E00EEC0
:1003E00000F0080E01D81200EA6002D0EE6AFCD7D5
:0A03F000F350E9601200EE6AFCD73A
:0603FA0013EE00F023EEFB
:1004000000F0F86A0F9C33EC01F003EC00F01CECF8
:0604100000F0FBD7120012
:020000040030CA
:010003001EDE
:010005008179
:00000001FF
