:020000040000FA
:06000000FFEF00F012000A
:0A00060001001A0200006A00000069
:0400100004000000E8
:020014001200D8
:060018005EEF00F0120093
:02001E00060ECC
:10002000F66E000EF76E000EF86E00010900F55036
:10003000656F0900F550666F03E1656701D03DD03B
:100040000900F550606F0900F550616F0900F55027
:10005000626F09000900F550E96E0900F550EA6E7B
:10006000090009000900F550636F0900F550646F3D
:1000700009000900F6CF67F0F7CF68F0F8CF69F014
:1000800060C0F6FF61C0F7FF62C0F8FF0001635374
:1000900002E1645307E00900F550EE6E6307F8E2F1
:1000A0006407F9D767C0F6FF68C0F7FF69C0F8FFBB
:0C00B00000016507000E665BBFD7120060
:0400BC00D8CFE4FFB6
:1000C000E0CFE4FFE46EDACFE4FFE2CFDAFFE652FE
:1000D0009EA208D09E92040E00016A27000E6B2398
:1000E0006C236D23E552E5CFDAFFE550E5CFE0FF65
:1000F000E5CFD8FF1000D08EF28EF28CF28E9D826A
:100100009F92F90ECB6E9E92DE0EE66ED4EC00F05E
:04011000E5521200A2
:0C011400959E838E7BEC00F06AC004F026
:100120006BC005F06CC006F06DC007F0E80E096EFC
:10013000030E0A6E0B6A0C6AB0EC00F0F40E005C61
:10014000010E0158000E0258000E035802E2000E84
:1001500001D0010EE8B0838EE8A0839EDFD71200A5
:10016000036A026A016A006A200EE76ED8900436BC
:100170000536063607360036013602360336095094
:10018000005C0A5001580B5002580C50035809E308
:100190000950005E0A50015A0B50025A0C50035A83
:0801A000042AE72EE4D7120047
:0801A800D9CFE6FFDACFE6FF34
:1001B000E1CFD9FFE2CFDAFFFD0EDB50FB0BCA6EB9
:1001C000CC6A9E92FD0EDBAE02D09D8201D09D9244
:0E01D000CA84E552E5CFDAFFE7CFD9FF12006F
:0201DE00000E11
:1001E000F36E00EE00F0080E01D81200EA6002D0B3
:0E01F000EE6AFCD7F350E9601200EE6AFCD70D
:0201FE0013EEFE
:1002000000F023EE00F0F86A0F9C0FEC00F00AEC0F
:0A02100000F08AEC00F0FBD71200AA
:04021A0000000000E0
:020000040030CA
:010003001EDE
:00000001FF
