:020000040000FA
:06000000D4EF01F0120034
:020006001200E6
:060008001EEF01F01200E2
:02000E000000F0
:020010000000EE
:0400120000000000EA
:06001800F2EF00F01200FF
:02001E000200DE
:10002000120000006E000000040000000E0000003E
:080030006A000000040000005A
:08003800D9CFE6FFE1CFD9FFAB
:10004000E652DF6A956A936A0FEC01F034EC01F036
:10005000E66AE66A020EE66EC0EC00F0E552E55292
:10006000E5528C9C6AC004F06BC005F06CC006F0D1
:100070006DC007F0E80E096E030E0A6E0B6A0C6A7B
:1000800046EC01F0F40E005C010E0158000E02581F
:10009000000E035802E2000E01D0010EE8B08C8E73
:1000A000E8A08C9EC80E00016E5D000E6F59000E18
:1000B0007059000E71590FE3DF2A3F0EDF16DFCFB4
:1000C000E6FF8BEC01F0E5528C8C8C9C00016E6B92
:1000D0006F6B706B716BC6D7E552E552E7CFD9FFF6
:0200E00012000C
:0E00E2001E0EF66E000EF76E000EF86E000198
:1000F0000900F550656F0900F550666F03E165670B
:1001000001D03DD00900F550606F0900F550616FD6
:100110000900F550626F09000900F550E96E090009
:10012000F550EA6E090009000900F550636F0900F7
:10013000F550646F09000900F6CF67F0F7CF68F05B
:10014000F8CF69F060C0F6FF61C0F7FF62C0F8FF4A
:100150000001635302E1645307E00900F550EE6EBD
:100160006307F8E26407F9D767C0F6FF68C0F7FFD6
:1001700069C0F8FF00016507000E665BBFD712007B
:10018000D9CFE6FFDACFE6FFE1CFD9FFE2CFDAFF42
:100190003F0EC716C66AFD0EDB50C612FB0EDB50C3
:1001A000C712FC0EDB50030A09E0010A04E0020A50
:1001B00006E1C78C04D0C78CC68801D0C688FD0E66
:1001C000DB50050A03E0010A03E1928A938201D021
:1001D00093929380949EC68AE552E5CFDAFFE7CFEB
:0401E000D9FF120031
:0C01E400D8CFE4FFE0CFE4FFE46EDACFF8
:1001F000E4FFE2CFDAFFE6529EA208D09E92040E00
:1002000000016A27000E6B236C236D23E552E5CFB6
:10021000DAFFE550E5CFE0FFE5CFD8FF1000D08E44
:10022000F28EF28CF28E9D829F92F90ECB6E9E9290
:0C023000DE0EE66EA9EC01F0E5521200B3
:04023C00DACFE4FF32
:10024000E2CFDAFFE6529EA00BD09E90D10ECF6E89
:10025000200ECE6E00016E2B000E6F2370237123D3
:10026000E552E5CFDAFF1100D08EF28EF28E9D803E
:100270009E909F8006D8C50EE66E6AEC01F0E552AE
:0C0280001200D10ECF6E200ECE6E1200C8
:04028C00036A026A95
:10029000016A006A200EE76ED890043605360636ED
:1002A000073600360136023603360950005C0A5024
:1002B00001580B5002580C50035809E30950005ED6
:1002C0000A50015A0B50025A0C50035A042AE72EC6
:0402D000E4D712005D
:0C02D400D9CFE6FFDACFE6FFE1CFD9FF7B
:1002E000E2CFDAFFFD0EDB507E0BCD6EFD0EDBACF8
:1002F00002D0CD8E01D0CD9ECF6ACE6A9E90DBAE6D
:1003000002D09D8001D09D90CD80E552E5CFDAFFEF
:06031000E7CFD9FF120047
:0A031600D9CFE6FFDACFE6FFE1CF12
:10032000D9FFE2CFDAFFE652C950DF6E9E96C69E35
:10033000FD0EDB50C96EC6AE02D0FF0E03D09EA6E6
:10034000FED7000EE552E552E5CFDAFFE7CFD9FF41
:02035000120099
:0E035200D9CFE6FFDACFE6FFE1CFD9FFE2CF49
:10036000DAFFFD0EDB50FB0BCA6ECC6A9E92FD0ECF
:10037000DBAE02D09D8201D09D92CA84E552E5CFCA
:08038000DAFFE7CFD9FF1200FC
:08038800000EF36E00EE00F020
:10039000080E01D81200EA6002D0EE6AFCD7F350D2
:0803A000E9601200EE6AFCD7CF
:0803A80013EE00F023EE00F05B
:1003B000F86A0F9C71EC00F003EC00F01CEC00F00C
:0403C000FBD7120055
:00000001FF
