:020000040000FA
:0600000045EF03F01200C1
:020006001200E6
:080008003F065B4F666D7D07AA
:020010007F6F00
:0400120000000000EA
:060018006EEF02F0120081
:02001E000300DD
:10002000C20600007400000006000000120000007C
:100030007A00000004000000080000006A000000D0
:040040000A000000B2
:0C004400D9CFE6FFE1CFD9FFFC0EDBCFE7
:1000500014F0FD0EDBCF15F0010E0F0B05E0D8906C
:1000600015321432E806FBE1166A176AFC0EDBCF84
:1000700010F0FD0EDBCF11F0126A136A7AC004F0A3
:100080007BC005F07CC006F07DC007F010C009F011
:1000900011C00AF012C00BF013C00CF09AEC02F081
:1000A0001450005C15500158165002581750035850
:1000B00014E38C8C8C9A0A0E106E10C00CF0FE0E9D
:1000C000DBCF07F053EC03F00750EA6A6A0FE96EE2
:1000D000000EEA22EF50816E13D08C9C8C8A0A0E9F
:1000E000106E10C00CF0FE0EDBCF07F053EC03F0E7
:1000F0000350EA6A6A0FE96E000EEA22EF50816E41
:10010000E552E7CFD9FF1200D9CFE6FFE1CFD9FF03
:10011000050EE126640EDE6EDD6A020EDB6A030E5A
:10012000DB6A040EDB6A0C0E956E936A8BEC02F0B0
:10013000070EE66EBEEC02F0E5527AC004F07BC01A
:1001400005F07CC006F07DC007F0E80E096E030ED6
:100150000A6E0B6A0C6A9AEC02F0C80E005C000E84
:100160000158000E0258000E035802E2000E01D0A2
:10017000010EE8B08C8EE8A08C9ED950040FE96E79
:10018000DACFEAFF8350080B02E0EF8001D0EF9056
:10019000D950040FE96EDACFEAFF8350040B02E076
:1001A000EF8201D0EF928350080B03E08350040BE1
:1001B00002E1000E01D0010E106ED950040FE96E5D
:1001C000DACFEAFF1050010BF36EF346F346FB0E55
:1001D000EF14F310EF6E7A0EE66E000EE66ED95055
:1001E000040FE66E000EDA20E66EC9EC01F0E5526F
:1001F000E552E552E552D950040FE96EDACFEAFF35
:10020000EF50040B14E0030EDB5002E0000E01D0AF
:10021000010EE76E030EE7CFDBFF000EE66EE66A27
:10022000FEEC02F0E552E552020EDB6A79D0D950BD
:10023000040FE96EDACFEAFFEF50010B35E0030E51
:10024000DB5021E0D9CFE9FFDACFEAFF3C0EEE5ECA
:10025000000EED5ADECF12F0DDCF13F0D890135020
:1002600004E61E0E125C000E135804E21E0E106E01
:10027000116A04D0DECF10F0DDCF11F010C0DEFF28
:1002800011C0DDFF10D0020EDB50000802E2010EAB
:1002900001D0000E106E020EDBCFE7FF1050E75EBC
:1002A000020EE7CFDBFF3CD0D950040FE96EDACF66
:1002B000EAFFEF50020B34E0030EDB501DE03C0E72
:1002C000DE26000EDD22DECF12F0DDCF13F0133478
:1002D00004E212502C08010E135405E22C0E106E8D
:1002E000010E116E04D0DECF10F0DDCF11F010C082
:1002F000DEFF11C0DDFF14D0630EF36E020EDBCF04
:10030000F4FFF350F45C02E2010E01D0000E106E17
:10031000020EDBCFE7FF1050E726020EE7CFDBFF30
:10032000030EDB5020E0DFEC02F0F3CF10F0F4CF4F
:1003300011F0630ED8801054000E115407E2000E25
:10034000E66EE66AFEEC02F0E552E552DECFE6FF2D
:10035000DDCFE6FFDFEC02F0F350E66E73DEE55230
:10036000E552E5520BD0DECFE6FFDDCFE6FF020E11
:10037000DBCFE6FF67DEE552E552E552DED6050E3D
:10038000E15C02E2E16AE552E16EE552E7CFD9FFB6
:02039000120059
:0E039200D9CFE6FFE1CFD9FFFD0EDBCFE9FFAB
:1003A000FE0EDBCFEAFFEF500001785D17E0FD0E97
:1003B000DBCFE9FFFE0EDBCFEAFFEFCF78F0796B02
:1003C000FB0EDBCFE9FFFC0EDBCFEAFFEECF74F0D4
:1003D000EECF75F0EECF76F0EFCF77F0FB0EDBCF00
:1003E000E9FFFC0EDBCFEAFF7451EE5C106E755135
:1003F000EE58116E7651EE58126E7751EE58136E1C
:10040000320E105C000E1158000E1258000E1358D8
:1004100002E3795108E0FD0EDBCFE9FFFE0EDBCFF2
:10042000EAFFEF6A08D0FD0EDBCFE9FFFE0EDBCF5F
:0E043000EAFFEFCF79F0E552E7CFD9FF1200D7
:02043E001E0E90
:10044000F66E000EF76E000EF86E00010900F55012
:10045000656F0900F550666F03E1656701D03DD017
:100460000900F550606F0900F550616F0900F55003
:10047000626F09000900F550E96E0900F550EA6E57
:10048000090009000900F550636F0900F550646F19
:1004900009000900F6CF67F0F7CF68F0F8CF69F0F0
:1004A00060C0F6FF61C0F7FF62C0F8FF0001635350
:1004B00002E1645307E00900F550EE6E6307F8E2CD
:1004C0006407F9D767C0F6FF68C0F7FF69C0F8FF97
:0C04D00000016507000E665BBFD712003C
:0404DC00D8CFE4FF92
:1004E000E0CFE4FFE46EDACFE4FFE2CFDAFFE652DA
:1004F0009EA208D09E92040E00017A27000E7B2354
:100500007C237D23E552E5CFDAFFE550E5CFE0FF20
:10051000E5CFD8FF1000D08EF28EF28CF28E9D8245
:100520009F92F90ECB6E9E92DE0EE66E1AEC03F0F1
:04053000E55212007E
:0C053400036A026A016A006A200EE76E8A
:10054000D8900436053606360736003601360236B0
:1005500003360950005C0A5001580B5002580C50E9
:10056000035809E30950005E0A50015A0B50025A21
:0C0570000C50035A042AE72EE4D71200B6
:04057C00D9CFE6FFEE
:10058000DACFE6FFE1CFD9FFE2CFDAFFFD0EDB5095
:100590007E0BCD6EFD0EDBAC02D0CD8E01D0CD9E9C
:1005A000CF6ACE6A9E90DBAE02D09D8001D09D9036
:0E05B000CD80E552E5CFDAFFE7CFD9FF12008C
:0205BE00D9CF93
:1005C000E6FFDACFE6FFE1CFD9FFE2CFDAFFE6526E
:1005D000E652CE50DF6E010ECFCFDBFFDECF10F044
:1005E000DDCF11F010C0F3FF11C0F4FFE552E5526A
:0C05F000E552E5CFDAFFE7CFD9FF12009B
:0405FC00D9CFE6FF6E
:10060000DACFE6FFE1CFD9FFE2CFDAFFE652E652DA
:10061000FC0EDBCFDEFFDBCFDDFF010EDB50CF6E4C
:10062000DF50CE6EE552E552E552E5CFDAFFE7CF77
:04063000D9FF1200DC
:0C063400D9CFE6FFDACFE6FFE1CFD9FF17
:10064000E2CFDAFFFD0EDB50FB0BCA6ECC6A9E9246
:10065000FD0EDBAE02D09D8201D09D92CA84E55290
:0A066000E5CFDAFFE7CFD9FF120063
:06066A00000EF36E00EE2D
:1006700000F0080E01D81200EA6002D0EE6AFCD742
:0A068000F350E9601200EE6AFCD7A7
:06068A0013EE00F023EE68
:1006900000F0F86A0F9C1FEC02F003EC00F084EC11
:0606A00000F0FBD7120080
:0A06A600036A080EE76ED8900736CD
:1006B00003360C50035C02E3036E072AE72EF7D7DC
:0206C000120026
:0606C20000000000000032
:020000040030CA
:010003001EDE
:010005008179
:00000001FF
