:020000040000FA
:0600000035EF03F01200D1
:020006001200E6
:08000800313233413435364238
:08001000373839432A3023443C
:06001800BAEF02F0120035
:02001E000300DD
:100020008A0600007A000000060000008606000034
:1000300080000000040000000800000060000000D4
:0400400010000000AC
:0C004400D9CFE6FFE1CFD9FF100EE12676
:10005000DE6ADE6ADE6ADD6ADD52DD52040EDB6ACC
:10006000050EDB6A060EDB6A070EDB6A080EDB6A2A
:10007000090EDB6A0A0EDB6A0B0EDB6A0E0EDB6A08
:10008000956A8C6A0F0E936EF19EC16ED7EC02F0EA
:100090000C0EDB6A040EF36E0C0EDBCFF4FFF35094
:1000A000F45C4AE20C0EDBCFE6FF070EE552D88087
:1000B000E754106E010E105204E0E846FE0B1006E5
:1000C000FCE1E81C8A6E0D0EDB6A040EF36E0D0E69
:1000D000DBCFF4FFF350F45C2CE20D0EDBCFE6FF38
:1000E000030EE552D880E754116E010E115204E060
:1000F000E846FE0B1106FCE1106E811C101416E0A0
:100100000C0EDB50040DF3CF10F0F4CF11F0600EA5
:100110001026000E11220D0EDB500F011024E96E87
:10012000000E1120EA6E0F0EEFCFDBFF0D0EDB2A63
:10013000CCD70C0EDB2AAED7800EE66E000EE66E34
:10014000D9500F0FE66E000EDA20E66E15EC02F0C5
:10015000E552E552E552E5520F0EDB50440A01E14B
:1001600096D0670A01E177D0130A59E01A0A3CE0F9
:10017000690A37E07A0A33E0010A2FE00F0A2BE020
:10018000750A1EE0740A1AE0030A16E0010A12E07A
:10019000750A0DE0720A09E0010A05E0030A01E0B0
:1001A00079D08C8C77D08C8A75D08C8873D08F0E58
:1001B0008C1670D08C7C6ED08C7A6CD08C786AD097
:1001C0000E0EDB5002E0000E01D0010EE76E0E0EA7
:1001D000E7CFDBFF5FD08C9C5DD08C9A5BD08C9896
:1001E00059D0700E8C1A56D080C010F081C011F01A
:1001F00082C012F083C013F0E80E1026030E112205
:10020000000E1222132210C0DFFF010E11C0DBFF0F
:10021000020E12C0DBFF030E13C0DBFF3BD080C019
:1002200010F081C011F082C012F083C013F0E80E0C
:100230001026030E1122000E12221322040E10C0EB
:10024000DBFF050E11C0DBFF060E12C0DBFF070E41
:1002500013C0DBFF1FD080C010F081C011F082C03E
:1002600012F083C013F0E80E1026030E1122000EC8
:1002700012221322080E10C0DBFF090E11C0DBFF93
:100280000A0E12C0DBFF0B0E13C0DBFF03D08C9EE7
:100290008C4600D080C004F081C005F082C006F01A
:1002A00083C007F0E80E096E030E0A6E0B6A0C6A33
:1002B000E6EC02F0F40E005C010E0158000E02584C
:1002C000000E035802E2000E01D0010EE8B08C8E41
:1002D000E8A08C9E0E0EDB502CE080C004F081C0A4
:1002E00005F082C006F083C007F0C80E096E0A6AE6
:1002F0000B6A0C6AE6EC02F0640E005C000E01581A
:10030000000E0258000E035802E2000E01D0010E4A
:10031000E8B08C8CE8A08C9C8C50400B02E08C9A4E
:1003200001D08C8A8C50400B02E08C8801D08C98D4
:1003300071D00C0EDB6A030EF36E0C0EDBCFF4FFF4
:10034000F350F45C67E2D9CF14F0DACF15F00C0E5D
:10035000DB50040D1450F324E96E1550F420EA6EBE
:10036000EECF10F0EECF11F0EECF12F0EFCF13F092
:1003700010501110121013104AE0D9CF10F0DACF3C
:1003800011F00C0EDB50040D1050F324E96E1150E7
:10039000F420EA6EEE500001805DEE508159EE507F
:1003A0008259EE50835911E20C0EDBCFE6FF060EA8
:1003B000E552D880E754106E010E105204E0E84672
:1003C000FE0B1006FCE18C1222D0D9CF10F0DACF50
:1003D00011F00C0EDB50040D1050F324E96E115097
:1003E000F420EA6EEE6AEE6AEE6AEE6A0C0EDBCF7D
:1003F000E6FF060EE552D880E754106E010E10524B
:1004000004E0E846FE0B1006FCE1E81C8C160C0E1E
:10041000DB2A91D73DD6100EE15C02E2E16AE5529B
:0A042000E16EE552E7CFD9FF1200AC
:06042A00D9CFE6FFE1CF8F
:10043000D9FFFD0EDBCFE9FFFE0EDBCFEAFFEF5069
:1004400000017E5D17E0FD0EDBCFE9FFFE0EDBCF86
:10045000EAFFEFCF7EF07F6BFB0EDBCFE9FFFC0EF8
:10046000DBCFEAFFEECF7AF0EECF7BF0EECF7CF081
:10047000EFCF7DF0FB0EDBCFE9FFFC0EDBCFEAFF19
:100480007A51EE5C106E7B51EE58116E7C51EE5835
:10049000126E7D51EE58136E320E105C000E115824
:1004A000000E1258000E135802E37F5108E0FD0EB3
:1004B000DBCFE9FFFE0EDBCFEAFFEF6A08D0FD0ECF
:1004C000DBCFE9FFFE0EDBCFEAFFEFCF7FF0E55297
:0604D000E7CFD9FF120086
:0A04D6001E0EF66E000EF76E000E0B
:1004E000F86E00010900F550756F0900F550766F40
:1004F00003E1756701D03DD00900F550706F090028
:10050000F550716F0900F550726F09000900F55040
:10051000E96E0900F550EA6E090009000900F5507E
:10052000736F0900F550746F09000900F6CF77F07A
:10053000F7CF78F0F8CF79F070C0F6FF71C0F7FF11
:1005400072C0F8FF0001735302E1745307E0090021
:10055000F550EE6E7307F8E27407F9D777C0F6FF2F
:1005600078C0F7FF79C0F8FF00017507000E765BD1
:04057000BFD71200DF
:0C057400D8CFE4FFE0CFE4FFE46EDACF64
:10058000E4FFE2CFDAFFE6529EA208D09E92040E6C
:1005900000018027000E812382238323E552E5CFCB
:1005A000DAFFE550E5CFE0FFE5CFD8FF1000D08EB1
:1005B000F28EF28CF28E9D829F92F90ECB6E9E92FD
:0C05C000DE0EE66E0AEC03F0E5521200BD
:0405CC00036A026A52
:1005D000016A006A200EE76ED890043605360636AA
:1005E000073600360136023603360950005C0A50E1
:1005F00001580B5002580C50035809E30950005E93
:100600000A50015A0B50025A0C50035A042AE72E82
:04061000E4D7120019
:0C061400D9CFE6FFDACFE6FFE1CFD9FF37
:10062000E2CFDAFFFD0EDB50FB0BCA6ECC6A9E9266
:10063000FD0EDBAE02D09D8201D09D92CA84E552B0
:0A064000E5CFDAFFE7CFD9FF120083
:06064A00000EF36E00EE4D
:1006500000F0080E01D81200EA6002D0EE6AFCD762
:0A066000F350E9601200EE6AFCD7C7
:06066A0013EE00F023EE88
:1006700000F0F86A0F9C6BEC02F003EC00F022EC47
:0606800000F0FBD71200A0
:040686000000000070
:06068A000000000000006A
:020000040030CA
:010003001EDE
:010005008179
:00000001FF
