:020000040000FA
:0600000093EF02F0120074
:020006001200E6
:06000800E3EF01F012001D
:02000E000100EF
:0C001000420500006A000000040000002F
:04001C00D9CFE6FF53
:10002000E1CFD9FF050EE126DF6A010EDB6A020E81
:10003000DB6A030EDB6A040EDB6A956AF9EC01F0F9
:10004000050EE66E50EC02F0E5524A0EE66E6BECE1
:1000500002F0E5524A0EE66E1DEC01F0E552030E89
:10006000DF02F350E66EE66A87EC01F0E552E552F6
:10007000DF407F0B030DF350E66EE66A58EC01F0AB
:10008000E552E5526AC006F06BC007F06CC008F09C
:100090006DC009F0E80E0B6E030E0C6E0D6A0E6A51
:1000A0000BEC02F0F40E025C010E0358000E045833
:1000B000000E055802E2000E01D0010EE8B08C8E51
:1000C000E8A08C9ED950010FE96EDACFEAFFEE501E
:1000D00000016A5D146EEE506B59156EEE506C594E
:1000E000166EEE506D59176EE80E145C030E15581F
:1000F000000E1658000E175846E30A0EDF24640857
:1001000002E2000E02D00A0EDF24DF6EDF50166E10
:10011000176A030E086E096A16C00DF017C00EF0BC
:10012000B6EC01F006C014F007C015F014C0E6FFED
:1001300015C0E6FF87EC01F0E552E552DF407F0B8A
:10014000166E176A030E086E096A16C00DF017C006
:100150000EF0B6EC01F006C014F007C015F014C0A4
:10016000E6FF15C0E6FF58EC01F0E552E552010E3E
:100170006AC0DBFF020E6BC0DBFF030E6CC0DBFF4F
:10018000040E6DC0DBFF7ED7050EE15C02E2E16A82
:0C019000E552E16EE552E7CFD9FF120006
:04019C000E0EF66EDF
:1001A000000EF76E000EF86E00010900F550656F45
:1001B0000900F550666F03E1656701D03DD0090085
:1001C000F550606F0900F550616F0900F550626FDE
:1001D00009000900F550E96E0900F550EA6E0900C2
:1001E00009000900F550636F0900F550646F0900BC
:1001F0000900F6CF67F0F7CF68F0F8CF69F060C07C
:10020000F6FF61C0F7FF62C0F8FF0001635302E12F
:10021000645307E00900F550EE6E6307F8E26407E7
:10022000F9D767C0F6FF68C0F7FF69C0F8FF0001A3
:0A0230006507000E665BBFD71200E1
:06023A00D9CFE6FFDACF88
:10024000E6FFE1CFD9FFE2CFDAFFE652E652E6520F
:10025000E652F8CF02F0F6CF03F00C0EBA6E050EA0
:10026000F66EF76A300EF86E0800F550010B03E0E9
:10027000010EDB6802D0010EDB6A010EDB5002E0EA
:10028000949201D09396CA94FD0EDB50CB6ECA8433
:1002900002C0F8FF03C0F6FF040EE15C02E2E16A6F
:1002A000E552E16EE552E5CFDAFFE7CFD9FF120064
:1002B000D9CFE6FFDACFE6FFE1CFD9FFE2CFDAFF11
:1002C000E652E652FC0EDBCF14F0FD0EDBCF15F04C
:1002D000060ED89014361536E804FBE114C0DEFF94
:1002E00015C0DDFF010EDB50BB6EDF50E840E8407B
:1002F0003F0B300B146ECF0EBA141410BA6EE552C9
:0E030000E552E552E5CFDAFFE7CFD9FF120054
:02030E00D9CF45
:10031000E6FFDACFE6FFE1CFD9FFE2CFDAFFE65220
:10032000E652FC0EDBCF14F0FD0EDBCF15F0060E0F
:10033000D89014361536E804FBE114C0DEFF15C072
:10034000DDFF010EDB50BE6EDF50E840E8403F0BA2
:10035000300B146ECF0EBD141410BD6EE552E55275
:0C036000E552E5CFDAFFE7CFD9FF12002D
:04036C0009C013F0C1
:1003700008C012F008500D02F4CF07F0F3CF06F0DA
:1003800009500E02F4CF09F0F3CF08F00D02F3503C
:100390000726F4500822E86A092212500E02F35090
:1003A0000726F4500822E86A09220EAEDCEF01F0BD
:1003B0001250085E1350095A13AE000C0D50085E1F
:0603C0000E50095A000C6A
:0A03C600DACFE4FFE2CFDAFFE652DF
:1003D0009EA00BD09E90D10ECF6E200ECE6E00014F
:1003E0006A2B000E6B236C236D23E552E5CFDAFFF9
:1003F0001100D08EF28EF28E9D809E909F8006D846
:10040000C50EE66E2FEC02F0E5521200D10ECF6E53
:06041000200ECE6E12006A
:0A041600056A046A036A026A200EF8
:10042000E76ED890063607360836093602360336A8
:10043000043605360B50025C0C5003580D5004581E
:100440000E50055809E30B50025E0C50035A0D5034
:0E045000045A0E50055A062AE72EE4D7120071
:02045E00D9CFF4
:10046000E6FFDACFE6FFE1CFD9FFE2CFDAFFFD0EFC
:10047000DB507E0BCD6EFD0EDBAC02D0CD8E01D0FD
:10048000CD9ECF6ACE6A9E90DBAE02D09D8001D019
:100490009D90CD80E552E5CFDAFFE7CFD9FF12007E
:1004A000D9CFE6FFDACFE6FFE1CFD9FFE2CFDAFF1F
:1004B000FD0EDB50FB0BCA6ECC6A9E92FD0EDBAECE
:1004C00002D09D8201D09D92CA84E552E5CFDAFF29
:0604D000E7CFD9FF120086
:0A04D600D9CFE6FFDACFE6FFE1CF51
:1004E000D9FFE2CFDAFF0C0EBD129494CA94FD0E30
:1004F000DB50CB6ECA84E552E5CFDAFFE7CFD9FFF8
:06050000120094941200A9
:0A050600000EF36E00EE00F0080E88
:1005100001D81200EA6002D0EE6AFCD7F350E9601D
:060520001200EE6AFCD798
:0A05260013EE00F023EE00F0F86A77
:10053000019CCEEC00F003EC00F00EEC00F0FBD7D9
:020540001200A7
:0405420000000000B5
:020000040030CA
:010005008377
:00000001FF
